{
  "address": "0xCf7Ed3AccA5a467e9e704C703E8D87F634fB0Fc9",
  "abi": [
    {
      "inputs": [
        {
          "internalType": "contract VintageWine",
          "name": "_vintageWine",
          "type": "address"
        },
        {
          "internalType": "address",
          "name": "_grape",
          "type": "address"
        },
        {
          "internalType": "string",
          "name": "_BASE_URI",
          "type": "string"
        }
      ],
      "stateMutability": "nonpayable",
      "type": "constructor"
    },
    {
      "anonymous": false,
      "inputs": [
        {
          "indexed": true,
          "internalType": "address",
          "name": "owner",
          "type": "address"
        },
        {
          "indexed": true,
          "internalType": "address",
          "name": "approved",
          "type": "address"
        },
        {
          "indexed": true,
          "internalType": "uint256",
          "name": "tokenId",
          "type": "uint256"
        }
      ],
      "name": "Approval",
      "type": "event"
    },
    {
      "anonymous": false,
      "inputs": [
        {
          "indexed": true,
          "internalType": "address",
          "name": "owner",
          "type": "address"
        },
        {
          "indexed": true,
          "internalType": "address",
          "name": "operator",
          "type": "address"
        },
        {
          "indexed": false,
          "internalType": "bool",
          "name": "approved",
          "type": "bool"
        }
      ],
      "name": "ApprovalForAll",
      "type": "event"
    },
    {
      "anonymous": false,
      "inputs": [
        {
          "indexed": true,
          "internalType": "address",
          "name": "previousOwner",
          "type": "address"
        },
        {
          "indexed": true,
          "internalType": "address",
          "name": "newOwner",
          "type": "address"
        }
      ],
      "name": "OwnershipTransferred",
      "type": "event"
    },
    {
      "anonymous": false,
      "inputs": [
        {
          "indexed": false,
          "internalType": "address",
          "name": "account",
          "type": "address"
        }
      ],
      "name": "Paused",
      "type": "event"
    },
    {
      "anonymous": false,
      "inputs": [
        {
          "indexed": true,
          "internalType": "address",
          "name": "from",
          "type": "address"
        },
        {
          "indexed": true,
          "internalType": "address",
          "name": "to",
          "type": "address"
        },
        {
          "indexed": true,
          "internalType": "uint256",
          "name": "tokenId",
          "type": "uint256"
        }
      ],
      "name": "Transfer",
      "type": "event"
    },
    {
      "anonymous": false,
      "inputs": [
        {
          "indexed": false,
          "internalType": "address",
          "name": "account",
          "type": "address"
        }
      ],
      "name": "Unpaused",
      "type": "event"
    },
    {
      "anonymous": false,
      "inputs": [
        {
          "indexed": false,
          "internalType": "uint256",
          "name": "level",
          "type": "uint256"
        }
      ],
      "name": "onUpgradeCreated",
      "type": "event"
    },
    {
      "inputs": [],
      "name": "BASE_URI",
      "outputs": [
        {
          "internalType": "string",
          "name": "",
          "type": "string"
        }
      ],
      "stateMutability": "view",
      "type": "function"
    },
    {
      "inputs": [],
      "name": "LP_TAX_PERCENT",
      "outputs": [
        {
          "internalType": "uint256",
          "name": "",
          "type": "uint256"
        }
      ],
      "stateMutability": "view",
      "type": "function"
    },
    {
      "inputs": [
        {
          "internalType": "uint256",
          "name": "_maxSupply",
          "type": "uint256"
        },
        {
          "internalType": "uint256",
          "name": "_priceVintageWine",
          "type": "uint256"
        },
        {
          "internalType": "uint256",
          "name": "_priceGrape",
          "type": "uint256"
        },
        {
          "internalType": "uint256",
          "name": "_yield",
          "type": "uint256"
        }
      ],
      "name": "addLevel",
      "outputs": [],
      "stateMutability": "nonpayable",
      "type": "function"
    },
    {
      "inputs": [
        {
          "internalType": "address",
          "name": "to",
          "type": "address"
        },
        {
          "internalType": "uint256",
          "name": "tokenId",
          "type": "uint256"
        }
      ],
      "name": "approve",
      "outputs": [],
      "stateMutability": "nonpayable",
      "type": "function"
    },
    {
      "inputs": [
        {
          "internalType": "address",
          "name": "owner",
          "type": "address"
        }
      ],
      "name": "balanceOf",
      "outputs": [
        {
          "internalType": "uint256",
          "name": "",
          "type": "uint256"
        }
      ],
      "stateMutability": "view",
      "type": "function"
    },
    {
      "inputs": [
        {
          "internalType": "uint256",
          "name": "_index",
          "type": "uint256"
        },
        {
          "internalType": "uint256",
          "name": "_maxSupply",
          "type": "uint256"
        },
        {
          "internalType": "uint256",
          "name": "_priceVintageWine",
          "type": "uint256"
        },
        {
          "internalType": "uint256",
          "name": "_priceGrape",
          "type": "uint256"
        },
        {
          "internalType": "uint256",
          "name": "_yield",
          "type": "uint256"
        }
      ],
      "name": "changeLevel",
      "outputs": [],
      "stateMutability": "nonpayable",
      "type": "function"
    },
    {
      "inputs": [
        {
          "internalType": "contract IERC20",
          "name": "_token",
          "type": "address"
        },
        {
          "internalType": "uint256",
          "name": "_amount",
          "type": "uint256"
        },
        {
          "internalType": "address",
          "name": "target",
          "type": "address"
        }
      ],
      "name": "forwardERC20s",
      "outputs": [],
      "stateMutability": "nonpayable",
      "type": "function"
    },
    {
      "inputs": [
        {
          "internalType": "uint256",
          "name": "tokenId",
          "type": "uint256"
        }
      ],
      "name": "getApproved",
      "outputs": [
        {
          "internalType": "address",
          "name": "",
          "type": "address"
        }
      ],
      "stateMutability": "view",
      "type": "function"
    },
    {
      "inputs": [
        {
          "internalType": "uint256",
          "name": "_tokenId",
          "type": "uint256"
        }
      ],
      "name": "getLevel",
      "outputs": [
        {
          "internalType": "uint256",
          "name": "",
          "type": "uint256"
        }
      ],
      "stateMutability": "view",
      "type": "function"
    },
    {
      "inputs": [
        {
          "internalType": "uint256",
          "name": "_tokenId",
          "type": "uint256"
        }
      ],
      "name": "getYield",
      "outputs": [
        {
          "internalType": "uint256",
          "name": "",
          "type": "uint256"
        }
      ],
      "stateMutability": "view",
      "type": "function"
    },
    {
      "inputs": [
        {
          "internalType": "address",
          "name": "_owner",
          "type": "address"
        },
        {
          "internalType": "address",
          "name": "_operator",
          "type": "address"
        }
      ],
      "name": "isApprovedForAll",
      "outputs": [
        {
          "internalType": "bool",
          "name": "",
          "type": "bool"
        }
      ],
      "stateMutability": "view",
      "type": "function"
    },
    {
      "inputs": [
        {
          "internalType": "uint256",
          "name": "",
          "type": "uint256"
        }
      ],
      "name": "levels",
      "outputs": [
        {
          "internalType": "uint256",
          "name": "supply",
          "type": "uint256"
        },
        {
          "internalType": "uint256",
          "name": "maxSupply",
          "type": "uint256"
        },
        {
          "internalType": "uint256",
          "name": "priceVintageWine",
          "type": "uint256"
        },
        {
          "internalType": "uint256",
          "name": "priceGrape",
          "type": "uint256"
        },
        {
          "internalType": "uint256",
          "name": "yield",
          "type": "uint256"
        }
      ],
      "stateMutability": "view",
      "type": "function"
    },
    {
      "inputs": [
        {
          "internalType": "uint256",
          "name": "_level",
          "type": "uint256"
        },
        {
          "internalType": "uint256",
          "name": "_qty",
          "type": "uint256"
        }
      ],
      "name": "mintUpgrade",
      "outputs": [],
      "stateMutability": "nonpayable",
      "type": "function"
    },
    {
      "inputs": [],
      "name": "mintingStarted",
      "outputs": [
        {
          "internalType": "bool",
          "name": "",
          "type": "bool"
        }
      ],
      "stateMutability": "view",
      "type": "function"
    },
    {
      "inputs": [],
      "name": "name",
      "outputs": [
        {
          "internalType": "string",
          "name": "",
          "type": "string"
        }
      ],
      "stateMutability": "view",
      "type": "function"
    },
    {
      "inputs": [],
      "name": "owner",
      "outputs": [
        {
          "internalType": "address",
          "name": "",
          "type": "address"
        }
      ],
      "stateMutability": "view",
      "type": "function"
    },
    {
      "inputs": [
        {
          "internalType": "uint256",
          "name": "tokenId",
          "type": "uint256"
        }
      ],
      "name": "ownerOf",
      "outputs": [
        {
          "internalType": "address",
          "name": "",
          "type": "address"
        }
      ],
      "stateMutability": "view",
      "type": "function"
    },
    {
      "inputs": [],
      "name": "paused",
      "outputs": [
        {
          "internalType": "bool",
          "name": "",
          "type": "bool"
        }
      ],
      "stateMutability": "view",
      "type": "function"
    },
    {
      "inputs": [],
      "name": "renounceOwnership",
      "outputs": [],
      "stateMutability": "nonpayable",
      "type": "function"
    },
    {
      "inputs": [],
      "name": "royaltiesAddress",
      "outputs": [
        {
          "internalType": "address",
          "name": "",
          "type": "address"
        }
      ],
      "stateMutability": "view",
      "type": "function"
    },
    {
      "inputs": [
        {
          "internalType": "uint256",
          "name": "tokenId",
          "type": "uint256"
        },
        {
          "internalType": "uint256",
          "name": "value",
          "type": "uint256"
        }
      ],
      "name": "royaltyInfo",
      "outputs": [
        {
          "internalType": "address",
          "name": "receiver",
          "type": "address"
        },
        {
          "internalType": "uint256",
          "name": "royaltyAmount",
          "type": "uint256"
        }
      ],
      "stateMutability": "view",
      "type": "function"
    },
    {
      "inputs": [
        {
          "internalType": "address",
          "name": "from",
          "type": "address"
        },
        {
          "internalType": "address",
          "name": "to",
          "type": "address"
        },
        {
          "internalType": "uint256",
          "name": "tokenId",
          "type": "uint256"
        }
      ],
      "name": "safeTransferFrom",
      "outputs": [],
      "stateMutability": "nonpayable",
      "type": "function"
    },
    {
      "inputs": [
        {
          "internalType": "address",
          "name": "from",
          "type": "address"
        },
        {
          "internalType": "address",
          "name": "to",
          "type": "address"
        },
        {
          "internalType": "uint256",
          "name": "tokenId",
          "type": "uint256"
        },
        {
          "internalType": "bytes",
          "name": "_data",
          "type": "bytes"
        }
      ],
      "name": "safeTransferFrom",
      "outputs": [],
      "stateMutability": "nonpayable",
      "type": "function"
    },
    {
      "inputs": [
        {
          "internalType": "address",
          "name": "operator",
          "type": "address"
        },
        {
          "internalType": "bool",
          "name": "approved",
          "type": "bool"
        }
      ],
      "name": "setApprovalForAll",
      "outputs": [],
      "stateMutability": "nonpayable",
      "type": "function"
    },
    {
      "inputs": [
        {
          "internalType": "string",
          "name": "_BASE_URI",
          "type": "string"
        }
      ],
      "name": "setBaseURI",
      "outputs": [],
      "stateMutability": "nonpayable",
      "type": "function"
    },
    {
      "inputs": [
        {
          "internalType": "address",
          "name": "_grape",
          "type": "address"
        }
      ],
      "name": "setGrape",
      "outputs": [],
      "stateMutability": "nonpayable",
      "type": "function"
    },
    {
      "inputs": [
        {
          "internalType": "address",
          "name": "_royaltiesAddress",
          "type": "address"
        }
      ],
      "name": "setRoyaltiesAddress",
      "outputs": [],
      "stateMutability": "nonpayable",
      "type": "function"
    },
    {
      "inputs": [
        {
          "internalType": "uint256",
          "name": "_royaltiesFees",
          "type": "uint256"
        }
      ],
      "name": "setRoyaltiesFees",
      "outputs": [],
      "stateMutability": "nonpayable",
      "type": "function"
    },
    {
      "inputs": [
        {
          "internalType": "uint256",
          "name": "_startTime",
          "type": "uint256"
        }
      ],
      "name": "setStartTime",
      "outputs": [],
      "stateMutability": "nonpayable",
      "type": "function"
    },
    {
      "inputs": [
        {
          "internalType": "contract VintageWine",
          "name": "_vintageWine",
          "type": "address"
        }
      ],
      "name": "setVintageWine",
      "outputs": [],
      "stateMutability": "nonpayable",
      "type": "function"
    },
    {
      "inputs": [
        {
          "internalType": "address",
          "name": "_wineryAddress",
          "type": "address"
        }
      ],
      "name": "setWineryAddress",
      "outputs": [],
      "stateMutability": "nonpayable",
      "type": "function"
    },
    {
      "inputs": [],
      "name": "startTime",
      "outputs": [
        {
          "internalType": "uint256",
          "name": "",
          "type": "uint256"
        }
      ],
      "stateMutability": "view",
      "type": "function"
    },
    {
      "inputs": [
        {
          "internalType": "bytes4",
          "name": "interfaceId",
          "type": "bytes4"
        }
      ],
      "name": "supportsInterface",
      "outputs": [
        {
          "internalType": "bool",
          "name": "",
          "type": "bool"
        }
      ],
      "stateMutability": "view",
      "type": "function"
    },
    {
      "inputs": [],
      "name": "symbol",
      "outputs": [
        {
          "internalType": "string",
          "name": "",
          "type": "string"
        }
      ],
      "stateMutability": "view",
      "type": "function"
    },
    {
      "inputs": [
        {
          "internalType": "uint256",
          "name": "_tokenId",
          "type": "uint256"
        }
      ],
      "name": "tokenURI",
      "outputs": [
        {
          "internalType": "string",
          "name": "",
          "type": "string"
        }
      ],
      "stateMutability": "view",
      "type": "function"
    },
    {
      "inputs": [
        {
          "internalType": "address",
          "name": "from",
          "type": "address"
        },
        {
          "internalType": "address",
          "name": "to",
          "type": "address"
        },
        {
          "internalType": "uint256",
          "name": "tokenId",
          "type": "uint256"
        }
      ],
      "name": "transferFrom",
      "outputs": [],
      "stateMutability": "nonpayable",
      "type": "function"
    },
    {
      "inputs": [
        {
          "internalType": "address",
          "name": "newOwner",
          "type": "address"
        }
      ],
      "name": "transferOwnership",
      "outputs": [],
      "stateMutability": "nonpayable",
      "type": "function"
    },
    {
      "inputs": [],
      "name": "upgradesMinted",
      "outputs": [
        {
          "internalType": "uint256",
          "name": "",
          "type": "uint256"
        }
      ],
      "stateMutability": "view",
      "type": "function"
    },
    {
      "inputs": [],
      "name": "wineryAddress",
      "outputs": [
        {
          "internalType": "address",
          "name": "",
          "type": "address"
        }
      ],
      "stateMutability": "view",
      "type": "function"
    }
  ],
  "transactionHash": "0xcfe2993cd56f559e9b1c2cfe3a21d2bb377b0f6fc9918945b129842906526d1e",
  "args": [
    "0x5FbDB2315678afecb367f032d93F642f64180aa3",
    "0xe7f1725E7734CE288F8367e1Bb143E90bb3F0512",
    "https://api.pizza.game/chefs"
  ],
  "solcInputHash": "c53902bebd5b187ca38bb765653fd960",
  "bytecode": "0x608060405260006010553480156200001657600080fd5b50604051620031b4380380620031b4833981016040819052620000399162000565565b6040518060400160405280601e81526020017f56696e7461676557696e652047616d652056696e746e657220546f6f6c7300008152506040518060400160405280601d81526020017f56494e5441474557494e452d47414d452d56494e544e45522d544f4f4c000000815250620000bf620000b96200043c60201b60201c565b62000440565b6000805460ff60a01b191690558151620000e190600190602085019062000490565b508051620000f790600290602084019062000490565b5050600980546001600160a01b038087166001600160a01b031992831617909255600a8054928616929091169190911790555080516200013f90600b90602084019062000490565b50506040805160a0808201835260008083526109c4602080850191825268a2a15d09519be000008587019081526802b5e3af16b1880000606080880191825260016080808a01828152888052600e8088529a517fe710864318d4a32f37d6ce54cb3fadbef648dd12d8dbdf53973564d56b7f881c5596517fe710864318d4a32f37d6ce54cb3fadbef648dd12d8dbdf53973564d56b7f881d5593517fe710864318d4a32f37d6ce54cb3fadbef648dd12d8dbdf53973564d56b7f881e5591517fe710864318d4a32f37d6ce54cb3fadbef648dd12d8dbdf53973564d56b7f881f5593517fe710864318d4a32f37d6ce54cb3fadbef648dd12d8dbdf53973564d56b7f8820558751808701895285815261089881850190815269021e19e0c9bab2400000828b019081526804563918244f40000083880190815260038487019081529489528a875292517fa7c5ba7114a813b50159add3a36832908dc83db71d0b9a24c2ad0f83be9582075590517fa7c5ba7114a813b50159add3a36832908dc83db71d0b9a24c2ad0f83be95820855517fa7c5ba7114a813b50159add3a36832908dc83db71d0b9a24c2ad0f83be95820955517fa7c5ba7114a813b50159add3a36832908dc83db71d0b9a24c2ad0f83be95820a55517fa7c5ba7114a813b50159add3a36832908dc83db71d0b9a24c2ad0f83be95820b55865194850187528385526107d085830190815269043c33c19375648000009786019788526805f68e8131ecf8000093860193845260059186019182526002948590529590915292517f9adb202b1492743bc00c81d33cdc6423fa8c79109027eb6a845391e8fc1f04815592517f9adb202b1492743bc00c81d33cdc6423fa8c79109027eb6a845391e8fc1f04825592517f9adb202b1492743bc00c81d33cdc6423fa8c79109027eb6a845391e8fc1f04835590517f9adb202b1492743bc00c81d33cdc6423fa8c79109027eb6a845391e8fc1f048455517f9adb202b1492743bc00c81d33cdc6423fa8c79109027eb6a845391e8fc1f048555600f5550620006ac9050565b3390565b600080546001600160a01b038381166001600160a01b0319831681178455604051919092169283917f8be0079c531659141344cd1fd0a4f28419497f9722a3daafe3b4186f6b6457e09190a35050565b8280546200049e906200066f565b90600052602060002090601f016020900481019282620004c257600085556200050d565b82601f10620004dd57805160ff19168380011785556200050d565b828001600101855582156200050d579182015b828111156200050d578251825591602001919060010190620004f0565b506200051b9291506200051f565b5090565b5b808211156200051b576000815560010162000520565b6001600160a01b03811681146200054c57600080fd5b50565b634e487b7160e01b600052604160045260246000fd5b6000806000606084860312156200057b57600080fd5b8351620005888162000536565b809350506020808501516200059d8162000536565b60408601519093506001600160401b0380821115620005bb57600080fd5b818701915087601f830112620005d057600080fd5b815181811115620005e557620005e56200054f565b604051601f8201601f19908116603f011681019083821181831017156200061057620006106200054f565b816040528281528a868487010111156200062957600080fd5b600093505b828410156200064d57848401860151818501870152928501926200062e565b828411156200065f5760008684830101525b8096505050505050509250925092565b600181811c908216806200068457607f821691505b60208210811415620006a657634e487b7160e01b600052602260045260246000fd5b50919050565b612af880620006bc6000396000f3fe608060405234801561001057600080fd5b506004361061022d5760003560e01c80636f8608e41161013b578063abbc6d3f116100b8578063dbddb26a1161007c578063dbddb26a14610500578063dc95c4a714610508578063e06b97171461051b578063e985e9c51461052e578063f2fde38b1461054157600080fd5b8063abbc6d3f1461045a578063b2596a6714610462578063b3af2456146104c7578063b88d4fde146104da578063c87b56dd146104ed57600080fd5b80637cc8ef63116100ff5780637cc8ef631461041157806386481d40146104245780638da5cb5b1461043757806395d89b411461043f578063a22cb4651461044757600080fd5b80636f8608e4146103d257806370a08231146103da578063715018a6146103ed578063735d09a6146103f557806378e979251461040857600080fd5b806323b872dd116101c957806342842e0e1161018d57806342842e0e1461037457806343f37b981461038757806355f804b31461039a5780635c975abb146103ad5780636352211e146103bf57600080fd5b806323b872dd146103075780632a55205a1461031a5780632ecd520e1461033b578063328825351461034e5780633e0a322d1461036157600080fd5b806301ffc9a714610232578063047f3af11461025a57806306fdde03146102715780630805d88414610286578063081812fc14610299578063095ea7b3146102b9578063097f0e3c146102ce578063097f1f2f146102e15780630b8faf2d146102f4575b600080fd5b610245610240366004612372565b610554565b60405190151581526020015b60405180910390f35b61026360105481565b604051908152602001610251565b610279610565565b60405161025191906123e7565b6102636102943660046123fa565b6105f7565b6102ac6102a73660046123fa565b61064a565b6040516102519190612413565b6102cc6102c736600461243c565b6106d2565b005b6102cc6102dc3660046123fa565b6107e3565b6102cc6102ef366004612468565b610817565b6102cc610302366004612468565b610868565b6102cc610315366004612485565b6108b9565b61032d6103283660046124c6565b6108ea565b6040516102519291906124e8565b6102cc610349366004612501565b61093d565b6007546102ac906001600160a01b031681565b6102cc61036f3660046123fa565b6109da565b6102cc610382366004612485565b610aac565b6102cc610395366004612533565b610ac7565b6102cc6103a8366004612575565b610b0a565b600054600160a01b900460ff16610245565b6102ac6103cd3660046123fa565b610b45565b610245610bbc565b6102636103e8366004612468565b610bd7565b6102cc610c5e565b6008546102ac906001600160a01b031681565b610263600d5481565b6102cc61041f3660046124c6565b610c99565b6102636104323660046123fa565b611209565b6102ac611243565b610279611252565b6102cc6104553660046125f5565b611261565b610263600281565b61049f6104703660046123fa565b600e60205260009081526040902080546001820154600283015460038401546004909401549293919290919085565b604080519586526020860194909452928401919091526060830152608082015260a001610251565b6102cc6104d5366004612468565b611270565b6102cc6104e8366004612644565b6112c1565b6102796104fb3660046123fa565b6112f9565b6102796113bd565b6102cc610516366004612468565b61144b565b6102cc610529366004612724565b61149b565b61024561053c36600461275f565b611542565b6102cc61054f366004612468565b6115aa565b600061055f82611647565b92915050565b6060600180546105749061278d565b80601f01602080910402602001604051908101604052809291908181526020018280546105a09061278d565b80156105ed5780601f106105c2576101008083540402835291602001916105ed565b820191906000526020600020905b8154815290600101906020018083116105d057829003601f168201915b5050505050905090565b60006106028261166c565b6106275760405162461bcd60e51b815260040161061e906127c8565b60405180910390fd5b506000908152601160209081526040808320548352600e90915290206004015490565b60006106558261166c565b6106b65760405162461bcd60e51b815260206004820152602c60248201527f4552433732313a20617070726f76656420717565727920666f72206e6f6e657860448201526b34b9ba32b73a103a37b5b2b760a11b606482015260840161061e565b506000908152600560205260409020546001600160a01b031690565b60006106dd82610b45565b9050806001600160a01b0316836001600160a01b0316141561074b5760405162461bcd60e51b815260206004820152602160248201527f4552433732313a20617070726f76616c20746f2063757272656e74206f776e656044820152603960f91b606482015260840161061e565b336001600160a01b038216148061076757506107678133611542565b6107d45760405162461bcd60e51b815260206004820152603860248201527f4552433732313a20617070726f76652063616c6c6572206973206e6f74206f776044820152771b995c881b9bdc88185c1c1c9bdd995908199bdc88185b1b60421b606482015260840161061e565b6107de8383611689565b505050565b336107ec611243565b6001600160a01b0316146108125760405162461bcd60e51b815260040161061e906127f6565b600c55565b33610820611243565b6001600160a01b0316146108465760405162461bcd60e51b815260040161061e906127f6565b600880546001600160a01b0319166001600160a01b0392909216919091179055565b33610871611243565b6001600160a01b0316146108975760405162461bcd60e51b815260040161061e906127f6565b600980546001600160a01b0319166001600160a01b0392909216919091179055565b6108c333826116f7565b6108df5760405162461bcd60e51b815260040161061e9061282b565b6107de8383836117c1565b600080831561092557600754600c546001600160a01b03909116906064906109129086612892565b61091c91906128c7565b91509150610936565b50506007546001600160a01b031660005b9250929050565b33610946611243565b6001600160a01b03161461096c5760405162461bcd60e51b815260040161061e906127f6565b600f805490600061097c836128db565b90915550506040805160a081018252600080825260208083019788528284019687526060830195865260808301948552600f548252600e90529190912090518155935160018501559151600284015551600383015551600490910155565b336109e3611243565b6001600160a01b031614610a095760405162461bcd60e51b815260040161061e906127f6565b428111610a585760405162461bcd60e51b815260206004820152601b60248201527f737461727454696d65206d75737420626520696e206675747572650000000000604482015260640161061e565b610a60610bbc565b15610aa75760405162461bcd60e51b81526020600482015260176024820152761b5a5b9d1a5b99c8185b1c9958591e481cdd185c9d1959604a1b604482015260640161061e565b600d55565b6107de838383604051806020016040528060008152506112c1565b33610ad0611243565b6001600160a01b031614610af65760405162461bcd60e51b815260040161061e906127f6565b6107de6001600160a01b0384168284611968565b33610b13611243565b6001600160a01b031614610b395760405162461bcd60e51b815260040161061e906127f6565b6107de600b83836122c3565b6000818152600360205260408120546001600160a01b03168061055f5760405162461bcd60e51b815260206004820152602960248201527f4552433732313a206f776e657220717565727920666f72206e6f6e657869737460448201526832b73a103a37b5b2b760b91b606482015260840161061e565b6000600d54600014158015610bd25750600d5442115b905090565b60006001600160a01b038216610c425760405162461bcd60e51b815260206004820152602a60248201527f4552433732313a2062616c616e636520717565727920666f7220746865207a65604482015269726f206164647265737360b01b606482015260840161061e565b506001600160a01b031660009081526004602052604090205490565b33610c67611243565b6001600160a01b031614610c8d5760405162461bcd60e51b815260040161061e906127f6565b610c9760006119be565b565b600054600160a01b900460ff1615610ce65760405162461bcd60e51b815260206004820152601060248201526f14185d5cd8589b194e881c185d5cd95960821b604482015260640161061e565b610cee610bbc565b610d355760405162461bcd60e51b81526020600482015260186024820152772a37b7b6399039b0b632b99030b932903737ba1037b832b760411b604482015260640161061e565b600081118015610d465750600a8111155b610d9c5760405162461bcd60e51b815260206004820152602160248201527f7175616e74697479206d757374206265206265747765656e203120616e6420316044820152600360fc1b606482015260840161061e565b600f54821115610dbe5760405162461bcd60e51b815260040161061e906128f6565b6000828152600e6020526040902060018101549054610dde90839061291d565b1115610e375760405162461bcd60e51b815260206004820152602260248201527f796f752063616e2774206d696e742074686174206d616e79207269676874206e6044820152616f7760f01b606482015260840161061e565b6000828152600e6020526040812060020154610e54908390612892565b6000848152600e602052604081206003015491925090610e75908490612892565b60095490915082906001600160a01b03166370a08231336040518263ffffffff1660e01b8152600401610ea89190612413565b602060405180830381865afa158015610ec5573d6000803e3d6000fd5b505050506040513d601f19601f82011682018060405250810190610ee99190612935565b1015610f375760405162461bcd60e51b815260206004820152601b60248201527f6e6f74206861766520656e6f7567682056494e5441474557494e450000000000604482015260640161061e565b600a546040516370a0823160e01b815282916001600160a01b0316906370a0823190610f67903390600401612413565b602060405180830381865afa158015610f84573d6000803e3d6000fd5b505050506040513d601f19601f82011682018060405250810190610fa89190612935565b1015610fee5760405162461bcd60e51b81526020600482015260156024820152746e6f74206861766520656e6f75676820475241504560581b604482015260640161061e565b610ff9838533611a0e565b6009546001600160a01b0316639dc29fac33606461101860028261294e565b6110229087612892565b61102c91906128c7565b6040518363ffffffff1660e01b81526004016110499291906124e8565b600060405180830381600087803b15801561106357600080fd5b505af1158015611077573d6000803e3d6000fd5b5050600a546001600160a01b031691506323b872dd9050336040516001600160e01b031960e084901b1681526001600160a01b039091166004820152306024820152604481018490526064016020604051808303816000875af11580156110e2573d6000803e3d6000fd5b505050506040513d601f19601f820116820180604052508101906111069190612965565b50600a546001600160a01b03166342966c68606461112560028261294e565b61112f9085612892565b61113991906128c7565b6040518263ffffffff1660e01b815260040161115791815260200190565b600060405180830381600087803b15801561117157600080fd5b505af1158015611185573d6000803e3d6000fd5b50506009546001600160a01b0316915063bca6c75390503360646111aa600287612892565b6111b491906128c7565b6040518363ffffffff1660e01b81526004016111d19291906124e8565b600060405180830381600087803b1580156111eb57600080fd5b505af11580156111ff573d6000803e3d6000fd5b5050505050505050565b60006112148261166c565b6112305760405162461bcd60e51b815260040161061e906127c8565b5060009081526011602052604090205490565b6000546001600160a01b031690565b6060600280546105749061278d565b61126c338383611abb565b5050565b33611279611243565b6001600160a01b03161461129f5760405162461bcd60e51b815260040161061e906127f6565b600a80546001600160a01b0319166001600160a01b0392909216919091179055565b6112cb33836116f7565b6112e75760405162461bcd60e51b815260040161061e9061282b565b6112f384848484611b86565b50505050565b60606113048261166c565b6113685760405162461bcd60e51b815260206004820152602f60248201527f4552433732314d657461646174613a2055524920717565727920666f72206e6f60448201526e3732bc34b9ba32b73a103a37b5b2b760891b606482015260840161061e565b60008281526011602052604081205461138290600161291d565b905061138c611bb9565b61139582611bc8565b6040516020016113a6929190612982565b604051602081830303815290604052915050919050565b600b80546113ca9061278d565b80601f01602080910402602001604051908101604052809291908181526020018280546113f69061278d565b80156114435780601f1061141857610100808354040283529160200191611443565b820191906000526020600020905b81548152906001019060200180831161142657829003601f168201915b505050505081565b33611454611243565b6001600160a01b03161461147a5760405162461bcd60e51b815260040161061e906127f6565b600780546001600160a01b0319166001600160a01b03831617905550565b50565b336114a4611243565b6001600160a01b0316146114ca5760405162461bcd60e51b815260040161061e906127f6565b600f548511156114ec5760405162461bcd60e51b815260040161061e906128f6565b6040805160a081018252600080825260208083019788528284019687526060830195865260808301948552978152600e909752952094518555925160018501559051600284015551600383015551600490910155565b6008546000906001600160a01b03161580159061156c57506008546001600160a01b038381169116145b156115795750600161055f565b6001600160a01b0380841660009081526006602090815260408083209386168352929052205460ff165b9392505050565b336115b3611243565b6001600160a01b0316146115d95760405162461bcd60e51b815260040161061e906127f6565b6001600160a01b03811661163e5760405162461bcd60e51b815260206004820152602660248201527f4f776e61626c653a206e6577206f776e657220697320746865207a65726f206160448201526564647265737360d01b606482015260840161061e565b611498816119be565b60006001600160e01b0319821663152a902d60e11b148061055f575061055f82611cc6565b6000908152600360205260409020546001600160a01b0316151590565b600081815260056020526040902080546001600160a01b0319166001600160a01b03841690811790915581906116be82610b45565b6001600160a01b03167f8c5be1e5ebec7d5bd14f71427d1e84f3dd0314c0f7b2291e5b200ac8c7c3b92560405160405180910390a45050565b60006117028261166c565b6117635760405162461bcd60e51b815260206004820152602c60248201527f4552433732313a206f70657261746f7220717565727920666f72206e6f6e657860448201526b34b9ba32b73a103a37b5b2b760a11b606482015260840161061e565b600061176e83610b45565b9050806001600160a01b0316846001600160a01b0316148061179557506117958185611542565b806117b95750836001600160a01b03166117ae8461064a565b6001600160a01b0316145b949350505050565b826001600160a01b03166117d482610b45565b6001600160a01b0316146118385760405162461bcd60e51b815260206004820152602560248201527f4552433732313a207472616e736665722066726f6d20696e636f72726563742060448201526437bbb732b960d91b606482015260840161061e565b6001600160a01b03821661189a5760405162461bcd60e51b8152602060048201526024808201527f4552433732313a207472616e7366657220746f20746865207a65726f206164646044820152637265737360e01b606482015260840161061e565b6118a5838383611d16565b6118b0600082611689565b6001600160a01b03831660009081526004602052604081208054600192906118d990849061294e565b90915550506001600160a01b038216600090815260046020526040812080546001929061190790849061291d565b909155505060008181526003602052604080822080546001600160a01b0319166001600160a01b0386811691821790925591518493918716917fddf252ad1be2c89b69c2b068fc378daa952ba7f163c4a11628f55a4df523b3ef91a4505050565b6107de8363a9059cbb60e01b84846040516024016119879291906124e8565b60408051601f198184030181529190526020810180516001600160e01b03166001600160e01b031990931692909217909152611dee565b600080546001600160a01b038381166001600160a01b0319831681178455604051919092169283917f8be0079c531659141344cd1fd0a4f28419497f9722a3daafe3b4186f6b6457e09190a35050565b60005b838110156112f357600160106000828254611a2c919061291d565b90915550506000838152600e60205260408120805460019290611a5090849061291d565b909155505060108054600090815260116020526040902084905554611a76908390611ec0565b6040518381527fbd8dec1c83646f9f8c3ca8465376ed8174df592e995a30a206944b013ca6bcb59060200160405180910390a180611ab3816128db565b915050611a11565b816001600160a01b0316836001600160a01b03161415611b195760405162461bcd60e51b815260206004820152601960248201527822a9219b99189d1030b8383937bb32903a379031b0b63632b960391b604482015260640161061e565b6001600160a01b03838116600081815260066020908152604080832094871680845294825291829020805460ff191686151590811790915591519182527f17307eab39ab6107e8899845ad3d59bd9653f200f220920489ca2b5937696c31910160405180910390a3505050565b611b918484846117c1565b611b9d84848484611eda565b6112f35760405162461bcd60e51b815260040161061e906129d0565b6060600b80546105749061278d565b606081611bec5750506040805180820190915260018152600360fc1b602082015290565b8160005b8115611c165780611c00816128db565b9150611c0f9050600a836128c7565b9150611bf0565b60008167ffffffffffffffff811115611c3157611c3161262e565b6040519080825280601f01601f191660200182016040528015611c5b576020820181803683370190505b5090505b84156117b957611c7060018361294e565b9150611c7d600a86612a22565b611c8890603061291d565b60f81b818381518110611c9d57611c9d612a36565b60200101906001600160f81b031916908160001a905350611cbf600a866128c7565b9450611c5f565b60006001600160e01b031982166380ac58cd60e01b1480611cf757506001600160e01b03198216635b5e139f60e01b145b8061055f57506301ffc9a760e01b6001600160e01b031983161461055f565b6008546001600160a01b03848116911614801590611d4257506008546001600160a01b03838116911614155b8015611d5857506007546001600160a01b031615155b8015611d6c57506001600160a01b03831615155b8015611d8057506001600160a01b0383163b155b156107de5760075460405163a4d97fdb60e01b81526001600160a01b039091169063a4d97fdb90611db790309085906004016124e8565b600060405180830381600087803b158015611dd157600080fd5b505af1158015611de5573d6000803e3d6000fd5b50505050505050565b6000611e43826040518060400160405280602081526020017f5361666545524332303a206c6f772d6c6576656c2063616c6c206661696c6564815250856001600160a01b0316611fd89092919063ffffffff16565b8051909150156107de5780806020019051810190611e619190612965565b6107de5760405162461bcd60e51b815260206004820152602a60248201527f5361666545524332303a204552433230206f7065726174696f6e20646964206e6044820152691bdd081cdd58d8d9595960b21b606482015260840161061e565b61126c828260405180602001604052806000815250611fe7565b60006001600160a01b0384163b15611fcd57604051630a85bd0160e11b81526001600160a01b0385169063150b7a0290611f1e903390899088908890600401612a4c565b6020604051808303816000875af1925050508015611f59575060408051601f3d908101601f19168201909252611f5691810190612a89565b60015b611fb3573d808015611f87576040519150601f19603f3d011682016040523d82523d6000602084013e611f8c565b606091505b508051611fab5760405162461bcd60e51b815260040161061e906129d0565b805181602001fd5b6001600160e01b031916630a85bd0160e11b1490506117b9565b506001949350505050565b60606117b9848460008561201a565b611ff1838361214b565b611ffe6000848484611eda565b6107de5760405162461bcd60e51b815260040161061e906129d0565b60608247101561207b5760405162461bcd60e51b815260206004820152602660248201527f416464726573733a20696e73756666696369656e742062616c616e636520666f6044820152651c8818d85b1b60d21b606482015260840161061e565b6001600160a01b0385163b6120d25760405162461bcd60e51b815260206004820152601d60248201527f416464726573733a2063616c6c20746f206e6f6e2d636f6e7472616374000000604482015260640161061e565b600080866001600160a01b031685876040516120ee9190612aa6565b60006040518083038185875af1925050503d806000811461212b576040519150601f19603f3d011682016040523d82523d6000602084013e612130565b606091505b509150915061214082828661228a565b979650505050505050565b6001600160a01b0382166121a15760405162461bcd60e51b815260206004820181905260248201527f4552433732313a206d696e7420746f20746865207a65726f2061646472657373604482015260640161061e565b6121aa8161166c565b156121f75760405162461bcd60e51b815260206004820152601c60248201527f4552433732313a20746f6b656e20616c7265616479206d696e74656400000000604482015260640161061e565b61220360008383611d16565b6001600160a01b038216600090815260046020526040812080546001929061222c90849061291d565b909155505060008181526003602052604080822080546001600160a01b0319166001600160a01b03861690811790915590518392907fddf252ad1be2c89b69c2b068fc378daa952ba7f163c4a11628f55a4df523b3ef908290a45050565b606083156122995750816115a3565b8251156122a95782518084602001fd5b8160405162461bcd60e51b815260040161061e91906123e7565b8280546122cf9061278d565b90600052602060002090601f0160209004810192826122f15760008555612337565b82601f1061230a5782800160ff19823516178555612337565b82800160010185558215612337579182015b8281111561233757823582559160200191906001019061231c565b50612343929150612347565b5090565b5b808211156123435760008155600101612348565b6001600160e01b03198116811461149857600080fd5b60006020828403121561238457600080fd5b81356115a38161235c565b60005b838110156123aa578181015183820152602001612392565b838111156112f35750506000910152565b600081518084526123d381602086016020860161238f565b601f01601f19169290920160200192915050565b6020815260006115a360208301846123bb565b60006020828403121561240c57600080fd5b5035919050565b6001600160a01b0391909116815260200190565b6001600160a01b038116811461149857600080fd5b6000806040838503121561244f57600080fd5b823561245a81612427565b946020939093013593505050565b60006020828403121561247a57600080fd5b81356115a381612427565b60008060006060848603121561249a57600080fd5b83356124a581612427565b925060208401356124b581612427565b929592945050506040919091013590565b600080604083850312156124d957600080fd5b50508035926020909101359150565b6001600160a01b03929092168252602082015260400190565b6000806000806080858703121561251757600080fd5b5050823594602084013594506040840135936060013592509050565b60008060006060848603121561254857600080fd5b833561255381612427565b925060208401359150604084013561256a81612427565b809150509250925092565b6000806020838503121561258857600080fd5b823567ffffffffffffffff808211156125a057600080fd5b818501915085601f8301126125b457600080fd5b8135818111156125c357600080fd5b8660208285010111156125d557600080fd5b60209290920196919550909350505050565b801515811461149857600080fd5b6000806040838503121561260857600080fd5b823561261381612427565b91506020830135612623816125e7565b809150509250929050565b634e487b7160e01b600052604160045260246000fd5b6000806000806080858703121561265a57600080fd5b843561266581612427565b9350602085013561267581612427565b925060408501359150606085013567ffffffffffffffff8082111561269957600080fd5b818701915087601f8301126126ad57600080fd5b8135818111156126bf576126bf61262e565b604051601f8201601f19908116603f011681019083821181831017156126e7576126e761262e565b816040528281528a602084870101111561270057600080fd5b82602086016020830137600060208483010152809550505050505092959194509250565b600080600080600060a0868803121561273c57600080fd5b505083359560208501359550604085013594606081013594506080013592509050565b6000806040838503121561277257600080fd5b823561277d81612427565b9150602083013561262381612427565b600181811c908216806127a157607f821691505b602082108114156127c257634e487b7160e01b600052602260045260246000fd5b50919050565b6020808252601490820152731d1bdad95b88191bd95cc81b9bdd08195e1a5cdd60621b604082015260600190565b6020808252818101527f4f776e61626c653a2063616c6c6572206973206e6f7420746865206f776e6572604082015260600190565b60208082526031908201527f4552433732313a207472616e736665722063616c6c6572206973206e6f74206f6040820152701ddb995c881b9bdc88185c1c1c9bdd9959607a1b606082015260800190565b634e487b7160e01b600052601160045260246000fd5b60008160001904831182151516156128ac576128ac61287c565b500290565b634e487b7160e01b600052601260045260246000fd5b6000826128d6576128d66128b1565b500490565b60006000198214156128ef576128ef61287c565b5060010190565b6020808252600d908201526c1a5b9d985b1a59081b195d995b609a1b604082015260600190565b600082198211156129305761293061287c565b500190565b60006020828403121561294757600080fd5b5051919050565b6000828210156129605761296061287c565b500390565b60006020828403121561297757600080fd5b81516115a3816125e7565b6000835161299481846020880161238f565b602f60f81b90830190815283516129b281600184016020880161238f565b64173539b7b760d91b60019290910191820152600601949350505050565b60208082526032908201527f4552433732313a207472616e7366657220746f206e6f6e20455243373231526560408201527131b2b4bb32b91034b6b83632b6b2b73a32b960711b606082015260800190565b600082612a3157612a316128b1565b500690565b634e487b7160e01b600052603260045260246000fd5b6001600160a01b0385811682528416602082015260408101839052608060608201819052600090612a7f908301846123bb565b9695505050505050565b600060208284031215612a9b57600080fd5b81516115a38161235c565b60008251612ab881846020870161238f565b919091019291505056fea2646970667358221220cbf584f9ae9496806c25a22d84768f87a2cf786adc72b6a87546654b331b109564736f6c634300080b0033"
}