{
  "address": "0xCf7Ed3AccA5a467e9e704C703E8D87F634fB0Fc9",
  "abi": [
    {
      "inputs": [
        {
          "internalType": "contract VintageWine",
          "name": "_vintageWine",
          "type": "address"
        },
        {
          "internalType": "address",
          "name": "_grape",
          "type": "address"
        },
        {
          "internalType": "string",
          "name": "_BASE_URI",
          "type": "string"
        }
      ],
      "stateMutability": "nonpayable",
      "type": "constructor"
    },
    {
      "anonymous": false,
      "inputs": [
        {
          "indexed": true,
          "internalType": "address",
          "name": "owner",
          "type": "address"
        },
        {
          "indexed": true,
          "internalType": "address",
          "name": "approved",
          "type": "address"
        },
        {
          "indexed": true,
          "internalType": "uint256",
          "name": "tokenId",
          "type": "uint256"
        }
      ],
      "name": "Approval",
      "type": "event"
    },
    {
      "anonymous": false,
      "inputs": [
        {
          "indexed": true,
          "internalType": "address",
          "name": "owner",
          "type": "address"
        },
        {
          "indexed": true,
          "internalType": "address",
          "name": "operator",
          "type": "address"
        },
        {
          "indexed": false,
          "internalType": "bool",
          "name": "approved",
          "type": "bool"
        }
      ],
      "name": "ApprovalForAll",
      "type": "event"
    },
    {
      "anonymous": false,
      "inputs": [
        {
          "indexed": true,
          "internalType": "address",
          "name": "previousOwner",
          "type": "address"
        },
        {
          "indexed": true,
          "internalType": "address",
          "name": "newOwner",
          "type": "address"
        }
      ],
      "name": "OwnershipTransferred",
      "type": "event"
    },
    {
      "anonymous": false,
      "inputs": [
        {
          "indexed": false,
          "internalType": "address",
          "name": "account",
          "type": "address"
        }
      ],
      "name": "Paused",
      "type": "event"
    },
    {
      "anonymous": false,
      "inputs": [
        {
          "indexed": true,
          "internalType": "address",
          "name": "from",
          "type": "address"
        },
        {
          "indexed": true,
          "internalType": "address",
          "name": "to",
          "type": "address"
        },
        {
          "indexed": true,
          "internalType": "uint256",
          "name": "tokenId",
          "type": "uint256"
        }
      ],
      "name": "Transfer",
      "type": "event"
    },
    {
      "anonymous": false,
      "inputs": [
        {
          "indexed": false,
          "internalType": "address",
          "name": "account",
          "type": "address"
        }
      ],
      "name": "Unpaused",
      "type": "event"
    },
    {
      "anonymous": false,
      "inputs": [
        {
          "indexed": false,
          "internalType": "uint256",
          "name": "level",
          "type": "uint256"
        }
      ],
      "name": "onUpgradeCreated",
      "type": "event"
    },
    {
      "inputs": [],
      "name": "BASE_URI",
      "outputs": [
        {
          "internalType": "string",
          "name": "",
          "type": "string"
        }
      ],
      "stateMutability": "view",
      "type": "function"
    },
    {
      "inputs": [],
      "name": "LP_TAX_PERCENT",
      "outputs": [
        {
          "internalType": "uint256",
          "name": "",
          "type": "uint256"
        }
      ],
      "stateMutability": "view",
      "type": "function"
    },
    {
      "inputs": [
        {
          "internalType": "uint256",
          "name": "_maxSupply",
          "type": "uint256"
        },
        {
          "internalType": "uint256",
          "name": "_priceVintageWine",
          "type": "uint256"
        },
        {
          "internalType": "uint256",
          "name": "_priceGrape",
          "type": "uint256"
        },
        {
          "internalType": "uint256",
          "name": "_yield",
          "type": "uint256"
        }
      ],
      "name": "addLevel",
      "outputs": [],
      "stateMutability": "nonpayable",
      "type": "function"
    },
    {
      "inputs": [
        {
          "internalType": "address",
          "name": "to",
          "type": "address"
        },
        {
          "internalType": "uint256",
          "name": "tokenId",
          "type": "uint256"
        }
      ],
      "name": "approve",
      "outputs": [],
      "stateMutability": "nonpayable",
      "type": "function"
    },
    {
      "inputs": [
        {
          "internalType": "address",
          "name": "owner",
          "type": "address"
        }
      ],
      "name": "balanceOf",
      "outputs": [
        {
          "internalType": "uint256",
          "name": "",
          "type": "uint256"
        }
      ],
      "stateMutability": "view",
      "type": "function"
    },
    {
      "inputs": [
        {
          "internalType": "uint256",
          "name": "_index",
          "type": "uint256"
        },
        {
          "internalType": "uint256",
          "name": "_maxSupply",
          "type": "uint256"
        },
        {
          "internalType": "uint256",
          "name": "_priceVintageWine",
          "type": "uint256"
        },
        {
          "internalType": "uint256",
          "name": "_priceGrape",
          "type": "uint256"
        },
        {
          "internalType": "uint256",
          "name": "_yield",
          "type": "uint256"
        }
      ],
      "name": "changeLevel",
      "outputs": [],
      "stateMutability": "nonpayable",
      "type": "function"
    },
    {
      "inputs": [
        {
          "internalType": "contract IERC20",
          "name": "_token",
          "type": "address"
        },
        {
          "internalType": "uint256",
          "name": "_amount",
          "type": "uint256"
        },
        {
          "internalType": "address",
          "name": "target",
          "type": "address"
        }
      ],
      "name": "forwardERC20s",
      "outputs": [],
      "stateMutability": "nonpayable",
      "type": "function"
    },
    {
      "inputs": [
        {
          "internalType": "uint256",
          "name": "tokenId",
          "type": "uint256"
        }
      ],
      "name": "getApproved",
      "outputs": [
        {
          "internalType": "address",
          "name": "",
          "type": "address"
        }
      ],
      "stateMutability": "view",
      "type": "function"
    },
    {
      "inputs": [
        {
          "internalType": "uint256",
          "name": "_tokenId",
          "type": "uint256"
        }
      ],
      "name": "getLevel",
      "outputs": [
        {
          "internalType": "uint256",
          "name": "",
          "type": "uint256"
        }
      ],
      "stateMutability": "view",
      "type": "function"
    },
    {
      "inputs": [
        {
          "internalType": "uint256",
          "name": "_tokenId",
          "type": "uint256"
        }
      ],
      "name": "getYield",
      "outputs": [
        {
          "internalType": "uint256",
          "name": "",
          "type": "uint256"
        }
      ],
      "stateMutability": "view",
      "type": "function"
    },
    {
      "inputs": [
        {
          "internalType": "address",
          "name": "_owner",
          "type": "address"
        },
        {
          "internalType": "address",
          "name": "_operator",
          "type": "address"
        }
      ],
      "name": "isApprovedForAll",
      "outputs": [
        {
          "internalType": "bool",
          "name": "",
          "type": "bool"
        }
      ],
      "stateMutability": "view",
      "type": "function"
    },
    {
      "inputs": [
        {
          "internalType": "uint256",
          "name": "",
          "type": "uint256"
        }
      ],
      "name": "levels",
      "outputs": [
        {
          "internalType": "uint256",
          "name": "supply",
          "type": "uint256"
        },
        {
          "internalType": "uint256",
          "name": "maxSupply",
          "type": "uint256"
        },
        {
          "internalType": "uint256",
          "name": "priceVintageWine",
          "type": "uint256"
        },
        {
          "internalType": "uint256",
          "name": "priceGrape",
          "type": "uint256"
        },
        {
          "internalType": "uint256",
          "name": "yield",
          "type": "uint256"
        }
      ],
      "stateMutability": "view",
      "type": "function"
    },
    {
      "inputs": [
        {
          "internalType": "uint256",
          "name": "_level",
          "type": "uint256"
        },
        {
          "internalType": "uint256",
          "name": "_qty",
          "type": "uint256"
        }
      ],
      "name": "mintUpgrade",
      "outputs": [],
      "stateMutability": "nonpayable",
      "type": "function"
    },
    {
      "inputs": [],
      "name": "mintingStarted",
      "outputs": [
        {
          "internalType": "bool",
          "name": "",
          "type": "bool"
        }
      ],
      "stateMutability": "view",
      "type": "function"
    },
    {
      "inputs": [],
      "name": "name",
      "outputs": [
        {
          "internalType": "string",
          "name": "",
          "type": "string"
        }
      ],
      "stateMutability": "view",
      "type": "function"
    },
    {
      "inputs": [],
      "name": "owner",
      "outputs": [
        {
          "internalType": "address",
          "name": "",
          "type": "address"
        }
      ],
      "stateMutability": "view",
      "type": "function"
    },
    {
      "inputs": [
        {
          "internalType": "uint256",
          "name": "tokenId",
          "type": "uint256"
        }
      ],
      "name": "ownerOf",
      "outputs": [
        {
          "internalType": "address",
          "name": "",
          "type": "address"
        }
      ],
      "stateMutability": "view",
      "type": "function"
    },
    {
      "inputs": [],
      "name": "paused",
      "outputs": [
        {
          "internalType": "bool",
          "name": "",
          "type": "bool"
        }
      ],
      "stateMutability": "view",
      "type": "function"
    },
    {
      "inputs": [],
      "name": "renounceOwnership",
      "outputs": [],
      "stateMutability": "nonpayable",
      "type": "function"
    },
    {
      "inputs": [
        {
          "internalType": "address",
          "name": "from",
          "type": "address"
        },
        {
          "internalType": "address",
          "name": "to",
          "type": "address"
        },
        {
          "internalType": "uint256",
          "name": "tokenId",
          "type": "uint256"
        }
      ],
      "name": "safeTransferFrom",
      "outputs": [],
      "stateMutability": "payable",
      "type": "function"
    },
    {
      "inputs": [
        {
          "internalType": "address",
          "name": "from",
          "type": "address"
        },
        {
          "internalType": "address",
          "name": "to",
          "type": "address"
        },
        {
          "internalType": "uint256",
          "name": "tokenId",
          "type": "uint256"
        },
        {
          "internalType": "bytes",
          "name": "_data",
          "type": "bytes"
        }
      ],
      "name": "safeTransferFrom",
      "outputs": [],
      "stateMutability": "payable",
      "type": "function"
    },
    {
      "inputs": [
        {
          "internalType": "address",
          "name": "operator",
          "type": "address"
        },
        {
          "internalType": "bool",
          "name": "approved",
          "type": "bool"
        }
      ],
      "name": "setApprovalForAll",
      "outputs": [],
      "stateMutability": "nonpayable",
      "type": "function"
    },
    {
      "inputs": [
        {
          "internalType": "string",
          "name": "_BASE_URI",
          "type": "string"
        }
      ],
      "name": "setBaseURI",
      "outputs": [],
      "stateMutability": "nonpayable",
      "type": "function"
    },
    {
      "inputs": [
        {
          "internalType": "address",
          "name": "_grape",
          "type": "address"
        }
      ],
      "name": "setGrape",
      "outputs": [],
      "stateMutability": "nonpayable",
      "type": "function"
    },
    {
      "inputs": [
        {
          "internalType": "uint256",
          "name": "_startTime",
          "type": "uint256"
        }
      ],
      "name": "setStartTime",
      "outputs": [],
      "stateMutability": "nonpayable",
      "type": "function"
    },
    {
      "inputs": [
        {
          "internalType": "contract VintageWine",
          "name": "_vintageWine",
          "type": "address"
        }
      ],
      "name": "setVintageWine",
      "outputs": [],
      "stateMutability": "nonpayable",
      "type": "function"
    },
    {
      "inputs": [
        {
          "internalType": "address",
          "name": "_wineryAddress",
          "type": "address"
        }
      ],
      "name": "setWineryAddress",
      "outputs": [],
      "stateMutability": "nonpayable",
      "type": "function"
    },
    {
      "inputs": [],
      "name": "startTime",
      "outputs": [
        {
          "internalType": "uint256",
          "name": "",
          "type": "uint256"
        }
      ],
      "stateMutability": "view",
      "type": "function"
    },
    {
      "inputs": [
        {
          "internalType": "bytes4",
          "name": "interfaceId",
          "type": "bytes4"
        }
      ],
      "name": "supportsInterface",
      "outputs": [
        {
          "internalType": "bool",
          "name": "",
          "type": "bool"
        }
      ],
      "stateMutability": "view",
      "type": "function"
    },
    {
      "inputs": [],
      "name": "symbol",
      "outputs": [
        {
          "internalType": "string",
          "name": "",
          "type": "string"
        }
      ],
      "stateMutability": "view",
      "type": "function"
    },
    {
      "inputs": [
        {
          "internalType": "uint256",
          "name": "_tokenId",
          "type": "uint256"
        }
      ],
      "name": "tokenURI",
      "outputs": [
        {
          "internalType": "string",
          "name": "",
          "type": "string"
        }
      ],
      "stateMutability": "view",
      "type": "function"
    },
    {
      "inputs": [
        {
          "internalType": "address",
          "name": "from",
          "type": "address"
        },
        {
          "internalType": "address",
          "name": "to",
          "type": "address"
        },
        {
          "internalType": "uint256",
          "name": "tokenId",
          "type": "uint256"
        }
      ],
      "name": "transferFrom",
      "outputs": [],
      "stateMutability": "payable",
      "type": "function"
    },
    {
      "inputs": [
        {
          "internalType": "address",
          "name": "newOwner",
          "type": "address"
        }
      ],
      "name": "transferOwnership",
      "outputs": [],
      "stateMutability": "nonpayable",
      "type": "function"
    },
    {
      "inputs": [],
      "name": "upgradesMinted",
      "outputs": [
        {
          "internalType": "uint256",
          "name": "",
          "type": "uint256"
        }
      ],
      "stateMutability": "view",
      "type": "function"
    },
    {
      "inputs": [],
      "name": "wineryAddress",
      "outputs": [
        {
          "internalType": "address",
          "name": "",
          "type": "address"
        }
      ],
      "stateMutability": "view",
      "type": "function"
    }
  ],
  "transactionHash": "0xfaff4b7bcdc8fcf64eee69cb5c8d97db0882ea12eee6fe7cd681330fbfc460d6",
  "args": [
    "0x5FbDB2315678afecb367f032d93F642f64180aa3",
    "0xe7f1725E7734CE288F8367e1Bb143E90bb3F0512",
    "https://api.pizza.game/chefs"
  ],
  "solcInputHash": "19734285331e452224ee1a154565fe71",
  "bytecode": "0x60806040526000600e553480156200001657600080fd5b506040516200309b3803806200309b833981016040819052620000399162000560565b604080518082018252601e81527f56696e7461676557696e652047616d652056696e746e657220546f6f6c73000060208083019182528351808501909452601d84527f56494e5441474557494e452d47414d452d56494e544e45522d544f4f4c000000908401528151919291620000b3916000916200048b565b508051620000c99060019060208401906200048b565b505050620000e6620000e06200043560201b60201c565b62000439565b6006805460ff60a01b19169055600780546001600160a01b038086166001600160a01b031992831617909255600880549285169290911691909117905580516200013890600a9060208401906200048b565b50506040805160a0808201835260008083526109c4602080850191825268a2a15d09519be000008587019081526802b5e3af16b1880000606080880191825260016080808a01828152888052600c8088529a517f13649b2456f1b42fef0f0040b3aaeabcd21a76a0f3f5defd4f583839455116e85596517f13649b2456f1b42fef0f0040b3aaeabcd21a76a0f3f5defd4f583839455116e95593517f13649b2456f1b42fef0f0040b3aaeabcd21a76a0f3f5defd4f583839455116ea5591517f13649b2456f1b42fef0f0040b3aaeabcd21a76a0f3f5defd4f583839455116eb5593517f13649b2456f1b42fef0f0040b3aaeabcd21a76a0f3f5defd4f583839455116ec558751808701895285815261089881850190815269021e19e0c9bab2400000828b019081526804563918244f40000083880190815260038487019081529489528a875292517fd421a5181c571bba3f01190c922c3b2a896fc1d84e86c9f17ac10e67ebef8b5c5590517fd421a5181c571bba3f01190c922c3b2a896fc1d84e86c9f17ac10e67ebef8b5d55517fd421a5181c571bba3f01190c922c3b2a896fc1d84e86c9f17ac10e67ebef8b5e55517fd421a5181c571bba3f01190c922c3b2a896fc1d84e86c9f17ac10e67ebef8b5f55517fd421a5181c571bba3f01190c922c3b2a896fc1d84e86c9f17ac10e67ebef8b6055865194850187528385526107d085830190815269043c33c19375648000009786019788526805f68e8131ecf8000093860193845260059186019182526002948590529590915292517f5d6016397a73f5e079297ac5a36fef17b4d9c3831618e63ab105738020ddd7205592517f5d6016397a73f5e079297ac5a36fef17b4d9c3831618e63ab105738020ddd7215592517f5d6016397a73f5e079297ac5a36fef17b4d9c3831618e63ab105738020ddd7225590517f5d6016397a73f5e079297ac5a36fef17b4d9c3831618e63ab105738020ddd72355517f5d6016397a73f5e079297ac5a36fef17b4d9c3831618e63ab105738020ddd72455600d5550620006a79050565b3390565b600680546001600160a01b038381166001600160a01b0319831681179093556040519116919082907f8be0079c531659141344cd1fd0a4f28419497f9722a3daafe3b4186f6b6457e090600090a35050565b82805462000499906200066a565b90600052602060002090601f016020900481019282620004bd576000855562000508565b82601f10620004d857805160ff191683800117855562000508565b8280016001018555821562000508579182015b8281111562000508578251825591602001919060010190620004eb565b50620005169291506200051a565b5090565b5b808211156200051657600081556001016200051b565b6001600160a01b03811681146200054757600080fd5b50565b634e487b7160e01b600052604160045260246000fd5b6000806000606084860312156200057657600080fd5b8351620005838162000531565b80935050602080850151620005988162000531565b60408601519093506001600160401b0380821115620005b657600080fd5b818701915087601f830112620005cb57600080fd5b815181811115620005e057620005e06200054a565b604051601f8201601f19908116603f011681019083821181831017156200060b576200060b6200054a565b816040528281528a868487010111156200062457600080fd5b600093505b8284101562000648578484018601518185018701529285019262000629565b828411156200065a5760008684830101525b8096505050505050509250925092565b600181811c908216806200067f57607f821691505b60208210811415620006a157634e487b7160e01b600052602260045260246000fd5b50919050565b6129e480620006b76000396000f3fe6080604052600436106101c45760003560e01c806370a08231116100f8578063abbc6d3f11610090578063abbc6d3f146104e2578063b2596a67146104f7578063b3af245614610569578063b88d4fde14610589578063c87b56dd1461059c578063dbddb26a146105bc578063e06b9717146105d1578063e985e9c5146105f1578063f2fde38b1461061157600080fd5b806370a08231146103ed578063715018a61461040d578063735d09a61461042257806378e97925146104425780637cc8ef631461045857806386481d40146104785780638da5cb5b1461049857806395d89b41146104ad578063a22cb465146104c257600080fd5b806323b872dd1161016b57806323b872dd146102f35780632ecd520e146103065780633e0a322d1461032657806342842e0e1461034657806343f37b981461035957806355f804b3146103795780635c975abb146103995780636352211e146103b85780636f8608e4146103d857600080fd5b806301ffc9a7146101c9578063047f3af1146101fe57806306fdde03146102225780630805d88414610244578063081812fc14610264578063095ea7b314610291578063097f1f2f146102b35780630b8faf2d146102d3575b600080fd5b3480156101d557600080fd5b506101e96101e436600461225e565b610631565b60405190151581526020015b60405180910390f35b34801561020a57600080fd5b50610214600e5481565b6040519081526020016101f5565b34801561022e57600080fd5b50610237610683565b6040516101f591906122d3565b34801561025057600080fd5b5061021461025f3660046122e6565b610715565b34801561027057600080fd5b5061028461027f3660046122e6565b610768565b6040516101f591906122ff565b34801561029d57600080fd5b506102b16102ac366004612328565b6107f0565b005b3480156102bf57600080fd5b506102b16102ce366004612354565b610901565b3480156102df57600080fd5b506102b16102ee366004612354565b610952565b6102b1610301366004612371565b6109a3565b34801561031257600080fd5b506102b16103213660046123b2565b6109d4565b34801561033257600080fd5b506102b16103413660046122e6565b610a71565b6102b1610354366004612371565b610b43565b34801561036557600080fd5b506102b16103743660046123e4565b610b5e565b34801561038557600080fd5b506102b1610394366004612426565b610ba1565b3480156103a557600080fd5b50600654600160a01b900460ff166101e9565b3480156103c457600080fd5b506102846103d33660046122e6565b610bdc565b3480156103e457600080fd5b506101e9610c53565b3480156103f957600080fd5b50610214610408366004612354565b610c6e565b34801561041957600080fd5b506102b1610cf5565b34801561042e57600080fd5b50600954610284906001600160a01b031681565b34801561044e57600080fd5b50610214600b5481565b34801561046457600080fd5b506102b1610473366004612498565b610d30565b34801561048457600080fd5b506102146104933660046122e6565b6112a0565b3480156104a457600080fd5b506102846112da565b3480156104b957600080fd5b506102376112e9565b3480156104ce57600080fd5b506102b16104dd3660046124c8565b6112f8565b3480156104ee57600080fd5b50610214600281565b34801561050357600080fd5b506105416105123660046122e6565b600c60205260009081526040902080546001820154600283015460038401546004909401549293919290919085565b604080519586526020860194909452928401919091526060830152608082015260a0016101f5565b34801561057557600080fd5b506102b1610584366004612354565b611307565b6102b1610597366004612517565b611358565b3480156105a857600080fd5b506102376105b73660046122e6565b611390565b3480156105c857600080fd5b50610237611454565b3480156105dd57600080fd5b506102b16105ec3660046125f7565b6114e2565b3480156105fd57600080fd5b506101e961060c366004612632565b611589565b34801561061d57600080fd5b506102b161062c366004612354565b6115f1565b60006001600160e01b031982166380ac58cd60e01b148061066257506001600160e01b03198216635b5e139f60e01b145b8061067d57506301ffc9a760e01b6001600160e01b03198316145b92915050565b60606000805461069290612660565b80601f01602080910402602001604051908101604052809291908181526020018280546106be90612660565b801561070b5780601f106106e05761010080835404028352916020019161070b565b820191906000526020600020905b8154815290600101906020018083116106ee57829003601f168201915b5050505050905090565b600061072082611691565b6107455760405162461bcd60e51b815260040161073c9061269b565b60405180910390fd5b506000908152600f60209081526040808320548352600c90915290206004015490565b600061077382611691565b6107d45760405162461bcd60e51b815260206004820152602c60248201527f4552433732313a20617070726f76656420717565727920666f72206e6f6e657860448201526b34b9ba32b73a103a37b5b2b760a11b606482015260840161073c565b506000908152600460205260409020546001600160a01b031690565b60006107fb82610bdc565b9050806001600160a01b0316836001600160a01b031614156108695760405162461bcd60e51b815260206004820152602160248201527f4552433732313a20617070726f76616c20746f2063757272656e74206f776e656044820152603960f91b606482015260840161073c565b336001600160a01b038216148061088557506108858133611589565b6108f25760405162461bcd60e51b815260206004820152603860248201527f4552433732313a20617070726f76652063616c6c6572206973206e6f74206f776044820152771b995c881b9bdc88185c1c1c9bdd995908199bdc88185b1b60421b606482015260840161073c565b6108fc83836116ae565b505050565b3361090a6112da565b6001600160a01b0316146109305760405162461bcd60e51b815260040161073c906126c9565b600980546001600160a01b0319166001600160a01b0392909216919091179055565b3361095b6112da565b6001600160a01b0316146109815760405162461bcd60e51b815260040161073c906126c9565b600780546001600160a01b0319166001600160a01b0392909216919091179055565b6109ad338261171c565b6109c95760405162461bcd60e51b815260040161073c906126fe565b6108fc8383836117e6565b336109dd6112da565b6001600160a01b031614610a035760405162461bcd60e51b815260040161073c906126c9565b600d8054906000610a1383612765565b90915550506040805160a081018252600080825260208083019788528284019687526060830195865260808301948552600d548252600c90529190912090518155935160018501559151600284015551600383015551600490910155565b33610a7a6112da565b6001600160a01b031614610aa05760405162461bcd60e51b815260040161073c906126c9565b428111610aef5760405162461bcd60e51b815260206004820152601b60248201527f737461727454696d65206d75737420626520696e206675747572650000000000604482015260640161073c565b610af7610c53565b15610b3e5760405162461bcd60e51b81526020600482015260176024820152761b5a5b9d1a5b99c8185b1c9958591e481cdd185c9d1959604a1b604482015260640161073c565b600b55565b6108fc83838360405180602001604052806000815250611358565b33610b676112da565b6001600160a01b031614610b8d5760405162461bcd60e51b815260040161073c906126c9565b6108fc6001600160a01b0384168284611986565b33610baa6112da565b6001600160a01b031614610bd05760405162461bcd60e51b815260040161073c906126c9565b6108fc600a83836121af565b6000818152600260205260408120546001600160a01b03168061067d5760405162461bcd60e51b815260206004820152602960248201527f4552433732313a206f776e657220717565727920666f72206e6f6e657869737460448201526832b73a103a37b5b2b760b91b606482015260840161073c565b6000600b54600014158015610c695750600b5442115b905090565b60006001600160a01b038216610cd95760405162461bcd60e51b815260206004820152602a60248201527f4552433732313a2062616c616e636520717565727920666f7220746865207a65604482015269726f206164647265737360b01b606482015260840161073c565b506001600160a01b031660009081526003602052604090205490565b33610cfe6112da565b6001600160a01b031614610d245760405162461bcd60e51b815260040161073c906126c9565b610d2e60006119dc565b565b600654600160a01b900460ff1615610d7d5760405162461bcd60e51b815260206004820152601060248201526f14185d5cd8589b194e881c185d5cd95960821b604482015260640161073c565b610d85610c53565b610dcc5760405162461bcd60e51b81526020600482015260186024820152772a37b7b6399039b0b632b99030b932903737ba1037b832b760411b604482015260640161073c565b600081118015610ddd5750600a8111155b610e335760405162461bcd60e51b815260206004820152602160248201527f7175616e74697479206d757374206265206265747765656e203120616e6420316044820152600360fc1b606482015260840161073c565b600d54821115610e555760405162461bcd60e51b815260040161073c90612780565b6000828152600c6020526040902060018101549054610e759083906127a7565b1115610ece5760405162461bcd60e51b815260206004820152602260248201527f796f752063616e2774206d696e742074686174206d616e79207269676874206e6044820152616f7760f01b606482015260840161073c565b6000828152600c6020526040812060020154610eeb9083906127bf565b6000848152600c602052604081206003015491925090610f0c9084906127bf565b60075490915082906001600160a01b03166370a08231336040518263ffffffff1660e01b8152600401610f3f91906122ff565b602060405180830381865afa158015610f5c573d6000803e3d6000fd5b505050506040513d601f19601f82011682018060405250810190610f8091906127de565b1015610fce5760405162461bcd60e51b815260206004820152601b60248201527f6e6f74206861766520656e6f7567682056494e5441474557494e450000000000604482015260640161073c565b6008546040516370a0823160e01b815282916001600160a01b0316906370a0823190610ffe9033906004016122ff565b602060405180830381865afa15801561101b573d6000803e3d6000fd5b505050506040513d601f19601f8201168201806040525081019061103f91906127de565b10156110855760405162461bcd60e51b81526020600482015260156024820152746e6f74206861766520656e6f75676820475241504560581b604482015260640161073c565b611090838533611a2e565b6007546001600160a01b0316639dc29fac3360646110af6002826127f7565b6110b990876127bf565b6110c39190612824565b6040518363ffffffff1660e01b81526004016110e0929190612838565b600060405180830381600087803b1580156110fa57600080fd5b505af115801561110e573d6000803e3d6000fd5b50506008546001600160a01b031691506323b872dd9050336040516001600160e01b031960e084901b1681526001600160a01b039091166004820152306024820152604481018490526064016020604051808303816000875af1158015611179573d6000803e3d6000fd5b505050506040513d601f19601f8201168201806040525081019061119d9190612851565b506008546001600160a01b03166342966c6860646111bc6002826127f7565b6111c690856127bf565b6111d09190612824565b6040518263ffffffff1660e01b81526004016111ee91815260200190565b600060405180830381600087803b15801561120857600080fd5b505af115801561121c573d6000803e3d6000fd5b50506007546001600160a01b0316915063bca6c75390503360646112416002876127bf565b61124b9190612824565b6040518363ffffffff1660e01b8152600401611268929190612838565b600060405180830381600087803b15801561128257600080fd5b505af1158015611296573d6000803e3d6000fd5b5050505050505050565b60006112ab82611691565b6112c75760405162461bcd60e51b815260040161073c9061269b565b506000908152600f602052604090205490565b6006546001600160a01b031690565b60606001805461069290612660565b611303338383611adb565b5050565b336113106112da565b6001600160a01b0316146113365760405162461bcd60e51b815260040161073c906126c9565b600880546001600160a01b0319166001600160a01b0392909216919091179055565b611362338361171c565b61137e5760405162461bcd60e51b815260040161073c906126fe565b61138a84848484611ba6565b50505050565b606061139b82611691565b6113ff5760405162461bcd60e51b815260206004820152602f60248201527f4552433732314d657461646174613a2055524920717565727920666f72206e6f60448201526e3732bc34b9ba32b73a103a37b5b2b760891b606482015260840161073c565b6000828152600f60205260408120546114199060016127a7565b9050611423611bd9565b61142c82611be8565b60405160200161143d92919061286e565b604051602081830303815290604052915050919050565b600a805461146190612660565b80601f016020809104026020016040519081016040528092919081815260200182805461148d90612660565b80156114da5780601f106114af576101008083540402835291602001916114da565b820191906000526020600020905b8154815290600101906020018083116114bd57829003601f168201915b505050505081565b336114eb6112da565b6001600160a01b0316146115115760405162461bcd60e51b815260040161073c906126c9565b600d548511156115335760405162461bcd60e51b815260040161073c90612780565b6040805160a081018252600080825260208083019788528284019687526060830195865260808301948552978152600c909752952094518555925160018501559051600284015551600383015551600490910155565b6009546000906001600160a01b0316158015906115b357506009546001600160a01b038381169116145b156115c05750600161067d565b6001600160a01b0380841660009081526005602090815260408083209386168352929052205460ff165b9392505050565b336115fa6112da565b6001600160a01b0316146116205760405162461bcd60e51b815260040161073c906126c9565b6001600160a01b0381166116855760405162461bcd60e51b815260206004820152602660248201527f4f776e61626c653a206e6577206f776e657220697320746865207a65726f206160448201526564647265737360d01b606482015260840161073c565b61168e816119dc565b50565b6000908152600260205260409020546001600160a01b0316151590565b600081815260046020526040902080546001600160a01b0319166001600160a01b03841690811790915581906116e382610bdc565b6001600160a01b03167f8c5be1e5ebec7d5bd14f71427d1e84f3dd0314c0f7b2291e5b200ac8c7c3b92560405160405180910390a45050565b600061172782611691565b6117885760405162461bcd60e51b815260206004820152602c60248201527f4552433732313a206f70657261746f7220717565727920666f72206e6f6e657860448201526b34b9ba32b73a103a37b5b2b760a11b606482015260840161073c565b600061179383610bdc565b9050806001600160a01b0316846001600160a01b031614806117ce5750836001600160a01b03166117c384610768565b6001600160a01b0316145b806117de57506117de8185611589565b949350505050565b826001600160a01b03166117f982610bdc565b6001600160a01b0316146118615760405162461bcd60e51b815260206004820152602960248201527f4552433732313a207472616e73666572206f6620746f6b656e2074686174206960448201526839903737ba1037bbb760b91b606482015260840161073c565b6001600160a01b0382166118c35760405162461bcd60e51b8152602060048201526024808201527f4552433732313a207472616e7366657220746f20746865207a65726f206164646044820152637265737360e01b606482015260840161073c565b6118ce6000826116ae565b6001600160a01b03831660009081526003602052604081208054600192906118f79084906127f7565b90915550506001600160a01b03821660009081526003602052604081208054600192906119259084906127a7565b909155505060008181526002602052604080822080546001600160a01b0319166001600160a01b0386811691821790925591518493918716917fddf252ad1be2c89b69c2b068fc378daa952ba7f163c4a11628f55a4df523b3ef91a4505050565b6108fc8363a9059cbb60e01b84846040516024016119a5929190612838565b60408051601f198184030181529190526020810180516001600160e01b03166001600160e01b031990931692909217909152611ce6565b600680546001600160a01b038381166001600160a01b0319831681179093556040519116919082907f8be0079c531659141344cd1fd0a4f28419497f9722a3daafe3b4186f6b6457e090600090a35050565b60005b8381101561138a576001600e6000828254611a4c91906127a7565b90915550506000838152600c60205260408120805460019290611a709084906127a7565b9091555050600e80546000908152600f6020526040902084905554611a96908390611db8565b6040518381527fbd8dec1c83646f9f8c3ca8465376ed8174df592e995a30a206944b013ca6bcb59060200160405180910390a180611ad381612765565b915050611a31565b816001600160a01b0316836001600160a01b03161415611b395760405162461bcd60e51b815260206004820152601960248201527822a9219b99189d1030b8383937bb32903a379031b0b63632b960391b604482015260640161073c565b6001600160a01b03838116600081815260056020908152604080832094871680845294825291829020805460ff191686151590811790915591519182527f17307eab39ab6107e8899845ad3d59bd9653f200f220920489ca2b5937696c31910160405180910390a3505050565b611bb18484846117e6565b611bbd84848484611dd2565b61138a5760405162461bcd60e51b815260040161073c906128bc565b6060600a805461069290612660565b606081611c0c5750506040805180820190915260018152600360fc1b602082015290565b8160005b8115611c365780611c2081612765565b9150611c2f9050600a83612824565b9150611c10565b60008167ffffffffffffffff811115611c5157611c51612501565b6040519080825280601f01601f191660200182016040528015611c7b576020820181803683370190505b5090505b84156117de57611c906001836127f7565b9150611c9d600a8661290e565b611ca89060306127a7565b60f81b818381518110611cbd57611cbd612922565b60200101906001600160f81b031916908160001a905350611cdf600a86612824565b9450611c7f565b6000611d3b826040518060400160405280602081526020017f5361666545524332303a206c6f772d6c6576656c2063616c6c206661696c6564815250856001600160a01b0316611ed09092919063ffffffff16565b8051909150156108fc5780806020019051810190611d599190612851565b6108fc5760405162461bcd60e51b815260206004820152602a60248201527f5361666545524332303a204552433230206f7065726174696f6e20646964206e6044820152691bdd081cdd58d8d9595960b21b606482015260840161073c565b611303828260405180602001604052806000815250611edf565b60006001600160a01b0384163b15611ec557604051630a85bd0160e11b81526001600160a01b0385169063150b7a0290611e16903390899088908890600401612938565b6020604051808303816000875af1925050508015611e51575060408051601f3d908101601f19168201909252611e4e91810190612975565b60015b611eab573d808015611e7f576040519150601f19603f3d011682016040523d82523d6000602084013e611e84565b606091505b508051611ea35760405162461bcd60e51b815260040161073c906128bc565b805181602001fd5b6001600160e01b031916630a85bd0160e11b1490506117de565b506001949350505050565b60606117de8484600085611f12565b611ee98383612043565b611ef66000848484611dd2565b6108fc5760405162461bcd60e51b815260040161073c906128bc565b606082471015611f735760405162461bcd60e51b815260206004820152602660248201527f416464726573733a20696e73756666696369656e742062616c616e636520666f6044820152651c8818d85b1b60d21b606482015260840161073c565b6001600160a01b0385163b611fca5760405162461bcd60e51b815260206004820152601d60248201527f416464726573733a2063616c6c20746f206e6f6e2d636f6e7472616374000000604482015260640161073c565b600080866001600160a01b03168587604051611fe69190612992565b60006040518083038185875af1925050503d8060008114612023576040519150601f19603f3d011682016040523d82523d6000602084013e612028565b606091505b5091509150612038828286612176565b979650505050505050565b6001600160a01b0382166120995760405162461bcd60e51b815260206004820181905260248201527f4552433732313a206d696e7420746f20746865207a65726f2061646472657373604482015260640161073c565b6120a281611691565b156120ef5760405162461bcd60e51b815260206004820152601c60248201527f4552433732313a20746f6b656e20616c7265616479206d696e74656400000000604482015260640161073c565b6001600160a01b03821660009081526003602052604081208054600192906121189084906127a7565b909155505060008181526002602052604080822080546001600160a01b0319166001600160a01b03861690811790915590518392907fddf252ad1be2c89b69c2b068fc378daa952ba7f163c4a11628f55a4df523b3ef908290a45050565b606083156121855750816115ea565b8251156121955782518084602001fd5b8160405162461bcd60e51b815260040161073c91906122d3565b8280546121bb90612660565b90600052602060002090601f0160209004810192826121dd5760008555612223565b82601f106121f65782800160ff19823516178555612223565b82800160010185558215612223579182015b82811115612223578235825591602001919060010190612208565b5061222f929150612233565b5090565b5b8082111561222f5760008155600101612234565b6001600160e01b03198116811461168e57600080fd5b60006020828403121561227057600080fd5b81356115ea81612248565b60005b8381101561229657818101518382015260200161227e565b8381111561138a5750506000910152565b600081518084526122bf81602086016020860161227b565b601f01601f19169290920160200192915050565b6020815260006115ea60208301846122a7565b6000602082840312156122f857600080fd5b5035919050565b6001600160a01b0391909116815260200190565b6001600160a01b038116811461168e57600080fd5b6000806040838503121561233b57600080fd5b823561234681612313565b946020939093013593505050565b60006020828403121561236657600080fd5b81356115ea81612313565b60008060006060848603121561238657600080fd5b833561239181612313565b925060208401356123a181612313565b929592945050506040919091013590565b600080600080608085870312156123c857600080fd5b5050823594602084013594506040840135936060013592509050565b6000806000606084860312156123f957600080fd5b833561240481612313565b925060208401359150604084013561241b81612313565b809150509250925092565b6000806020838503121561243957600080fd5b823567ffffffffffffffff8082111561245157600080fd5b818501915085601f83011261246557600080fd5b81358181111561247457600080fd5b86602082850101111561248657600080fd5b60209290920196919550909350505050565b600080604083850312156124ab57600080fd5b50508035926020909101359150565b801515811461168e57600080fd5b600080604083850312156124db57600080fd5b82356124e681612313565b915060208301356124f6816124ba565b809150509250929050565b634e487b7160e01b600052604160045260246000fd5b6000806000806080858703121561252d57600080fd5b843561253881612313565b9350602085013561254881612313565b925060408501359150606085013567ffffffffffffffff8082111561256c57600080fd5b818701915087601f83011261258057600080fd5b81358181111561259257612592612501565b604051601f8201601f19908116603f011681019083821181831017156125ba576125ba612501565b816040528281528a60208487010111156125d357600080fd5b82602086016020830137600060208483010152809550505050505092959194509250565b600080600080600060a0868803121561260f57600080fd5b505083359560208501359550604085013594606081013594506080013592509050565b6000806040838503121561264557600080fd5b823561265081612313565b915060208301356124f681612313565b600181811c9082168061267457607f821691505b6020821081141561269557634e487b7160e01b600052602260045260246000fd5b50919050565b6020808252601490820152731d1bdad95b88191bd95cc81b9bdd08195e1a5cdd60621b604082015260600190565b6020808252818101527f4f776e61626c653a2063616c6c6572206973206e6f7420746865206f776e6572604082015260600190565b60208082526031908201527f4552433732313a207472616e736665722063616c6c6572206973206e6f74206f6040820152701ddb995c881b9bdc88185c1c1c9bdd9959607a1b606082015260800190565b634e487b7160e01b600052601160045260246000fd5b60006000198214156127795761277961274f565b5060010190565b6020808252600d908201526c1a5b9d985b1a59081b195d995b609a1b604082015260600190565b600082198211156127ba576127ba61274f565b500190565b60008160001904831182151516156127d9576127d961274f565b500290565b6000602082840312156127f057600080fd5b5051919050565b6000828210156128095761280961274f565b500390565b634e487b7160e01b600052601260045260246000fd5b6000826128335761283361280e565b500490565b6001600160a01b03929092168252602082015260400190565b60006020828403121561286357600080fd5b81516115ea816124ba565b6000835161288081846020880161227b565b602f60f81b908301908152835161289e81600184016020880161227b565b64173539b7b760d91b60019290910191820152600601949350505050565b60208082526032908201527f4552433732313a207472616e7366657220746f206e6f6e20455243373231526560408201527131b2b4bb32b91034b6b83632b6b2b73a32b960711b606082015260800190565b60008261291d5761291d61280e565b500690565b634e487b7160e01b600052603260045260246000fd5b6001600160a01b038581168252841660208201526040810183905260806060820181905260009061296b908301846122a7565b9695505050505050565b60006020828403121561298757600080fd5b81516115ea81612248565b600082516129a481846020870161227b565b919091019291505056fea26469706673582212205055d498a49b2a1b5e688bb24934fc128d6b888383b03d7f04024d61505a557f64736f6c634300080b0033"
}