{
  "address": "0xDc64a140Aa3E981100a9becA4E685f962f0cF6C9",
  "abi": [
    {
      "inputs": [
        {
          "internalType": "address",
          "name": "_grapeAddress",
          "type": "address"
        },
        {
          "internalType": "address",
          "name": "_couponSigner",
          "type": "address"
        },
        {
          "internalType": "address",
          "name": "_vintnerTypeOracleAddress",
          "type": "address"
        },
        {
          "internalType": "string",
          "name": "_BASE_URI",
          "type": "string"
        }
      ],
      "stateMutability": "nonpayable",
      "type": "constructor"
    },
    {
      "anonymous": false,
      "inputs": [
        {
          "indexed": true,
          "internalType": "address",
          "name": "owner",
          "type": "address"
        },
        {
          "indexed": true,
          "internalType": "address",
          "name": "approved",
          "type": "address"
        },
        {
          "indexed": true,
          "internalType": "uint256",
          "name": "tokenId",
          "type": "uint256"
        }
      ],
      "name": "Approval",
      "type": "event"
    },
    {
      "anonymous": false,
      "inputs": [
        {
          "indexed": true,
          "internalType": "address",
          "name": "owner",
          "type": "address"
        },
        {
          "indexed": true,
          "internalType": "address",
          "name": "operator",
          "type": "address"
        },
        {
          "indexed": false,
          "internalType": "bool",
          "name": "approved",
          "type": "bool"
        }
      ],
      "name": "ApprovalForAll",
      "type": "event"
    },
    {
      "anonymous": false,
      "inputs": [
        {
          "indexed": true,
          "internalType": "address",
          "name": "previousOwner",
          "type": "address"
        },
        {
          "indexed": true,
          "internalType": "address",
          "name": "newOwner",
          "type": "address"
        }
      ],
      "name": "OwnershipTransferred",
      "type": "event"
    },
    {
      "anonymous": false,
      "inputs": [
        {
          "indexed": false,
          "internalType": "address",
          "name": "account",
          "type": "address"
        }
      ],
      "name": "Paused",
      "type": "event"
    },
    {
      "anonymous": false,
      "inputs": [
        {
          "indexed": true,
          "internalType": "address",
          "name": "from",
          "type": "address"
        },
        {
          "indexed": true,
          "internalType": "address",
          "name": "to",
          "type": "address"
        },
        {
          "indexed": true,
          "internalType": "uint256",
          "name": "tokenId",
          "type": "uint256"
        }
      ],
      "name": "Transfer",
      "type": "event"
    },
    {
      "anonymous": false,
      "inputs": [
        {
          "indexed": false,
          "internalType": "address",
          "name": "account",
          "type": "address"
        }
      ],
      "name": "Unpaused",
      "type": "event"
    },
    {
      "anonymous": false,
      "inputs": [
        {
          "indexed": false,
          "internalType": "uint256",
          "name": "tokenId",
          "type": "uint256"
        }
      ],
      "name": "onVintnerCreated",
      "type": "event"
    },
    {
      "anonymous": false,
      "inputs": [
        {
          "indexed": false,
          "internalType": "uint256",
          "name": "tokenId",
          "type": "uint256"
        },
        {
          "indexed": false,
          "internalType": "uint256",
          "name": "vintnerType",
          "type": "uint256"
        }
      ],
      "name": "onVintnerRevealed",
      "type": "event"
    },
    {
      "inputs": [],
      "name": "BASE_URI",
      "outputs": [
        {
          "internalType": "string",
          "name": "",
          "type": "string"
        }
      ],
      "stateMutability": "view",
      "type": "function"
    },
    {
      "inputs": [],
      "name": "MASTER_VINTNER_TYPE",
      "outputs": [
        {
          "internalType": "uint256",
          "name": "",
          "type": "uint256"
        }
      ],
      "stateMutability": "view",
      "type": "function"
    },
    {
      "inputs": [],
      "name": "MASTER_VINTNER_YIELD",
      "outputs": [
        {
          "internalType": "uint256",
          "name": "",
          "type": "uint256"
        }
      ],
      "stateMutability": "view",
      "type": "function"
    },
    {
      "inputs": [],
      "name": "NUM_VINTNERS",
      "outputs": [
        {
          "internalType": "uint256",
          "name": "",
          "type": "uint256"
        }
      ],
      "stateMutability": "view",
      "type": "function"
    },
    {
      "inputs": [],
      "name": "PROMOTIONAL_VINTNERS",
      "outputs": [
        {
          "internalType": "uint256",
          "name": "",
          "type": "uint256"
        }
      ],
      "stateMutability": "view",
      "type": "function"
    },
    {
      "inputs": [],
      "name": "VINTNER_PRICE_AVAX",
      "outputs": [
        {
          "internalType": "uint256",
          "name": "",
          "type": "uint256"
        }
      ],
      "stateMutability": "view",
      "type": "function"
    },
    {
      "inputs": [],
      "name": "VINTNER_PRICE_GRAPE",
      "outputs": [
        {
          "internalType": "uint256",
          "name": "",
          "type": "uint256"
        }
      ],
      "stateMutability": "view",
      "type": "function"
    },
    {
      "inputs": [],
      "name": "VINTNER_TYPE",
      "outputs": [
        {
          "internalType": "uint256",
          "name": "",
          "type": "uint256"
        }
      ],
      "stateMutability": "view",
      "type": "function"
    },
    {
      "inputs": [],
      "name": "VINTNER_YIELD",
      "outputs": [
        {
          "internalType": "uint256",
          "name": "",
          "type": "uint256"
        }
      ],
      "stateMutability": "view",
      "type": "function"
    },
    {
      "inputs": [],
      "name": "WHITELIST_VINTNERS",
      "outputs": [
        {
          "internalType": "uint256",
          "name": "",
          "type": "uint256"
        }
      ],
      "stateMutability": "view",
      "type": "function"
    },
    {
      "inputs": [
        {
          "internalType": "address",
          "name": "to",
          "type": "address"
        },
        {
          "internalType": "uint256",
          "name": "tokenId",
          "type": "uint256"
        }
      ],
      "name": "approve",
      "outputs": [],
      "stateMutability": "nonpayable",
      "type": "function"
    },
    {
      "inputs": [
        {
          "internalType": "address",
          "name": "owner",
          "type": "address"
        }
      ],
      "name": "balanceOf",
      "outputs": [
        {
          "internalType": "uint256",
          "name": "",
          "type": "uint256"
        }
      ],
      "stateMutability": "view",
      "type": "function"
    },
    {
      "inputs": [],
      "name": "couponSigner",
      "outputs": [
        {
          "internalType": "address",
          "name": "",
          "type": "address"
        }
      ],
      "stateMutability": "view",
      "type": "function"
    },
    {
      "inputs": [
        {
          "internalType": "contract IERC20",
          "name": "_token",
          "type": "address"
        },
        {
          "internalType": "uint256",
          "name": "_amount",
          "type": "uint256"
        },
        {
          "internalType": "address",
          "name": "target",
          "type": "address"
        }
      ],
      "name": "forwardERC20s",
      "outputs": [],
      "stateMutability": "nonpayable",
      "type": "function"
    },
    {
      "inputs": [
        {
          "internalType": "uint256",
          "name": "tokenId",
          "type": "uint256"
        }
      ],
      "name": "getApproved",
      "outputs": [
        {
          "internalType": "address",
          "name": "",
          "type": "address"
        }
      ],
      "stateMutability": "view",
      "type": "function"
    },
    {
      "inputs": [
        {
          "internalType": "uint256",
          "name": "_tokenId",
          "type": "uint256"
        }
      ],
      "name": "getType",
      "outputs": [
        {
          "internalType": "uint256",
          "name": "",
          "type": "uint256"
        }
      ],
      "stateMutability": "view",
      "type": "function"
    },
    {
      "inputs": [
        {
          "internalType": "uint256",
          "name": "_tokenId",
          "type": "uint256"
        }
      ],
      "name": "getYield",
      "outputs": [
        {
          "internalType": "uint256",
          "name": "",
          "type": "uint256"
        }
      ],
      "stateMutability": "view",
      "type": "function"
    },
    {
      "inputs": [],
      "name": "grapeAddress",
      "outputs": [
        {
          "internalType": "contract IERC20",
          "name": "",
          "type": "address"
        }
      ],
      "stateMutability": "view",
      "type": "function"
    },
    {
      "inputs": [
        {
          "internalType": "address",
          "name": "_owner",
          "type": "address"
        },
        {
          "internalType": "address",
          "name": "_operator",
          "type": "address"
        }
      ],
      "name": "isApprovedForAll",
      "outputs": [
        {
          "internalType": "bool",
          "name": "",
          "type": "bool"
        }
      ],
      "stateMutability": "view",
      "type": "function"
    },
    {
      "inputs": [
        {
          "internalType": "uint256",
          "name": "qty",
          "type": "uint256"
        },
        {
          "internalType": "uint256",
          "name": "vintnerType",
          "type": "uint256"
        },
        {
          "internalType": "address",
          "name": "target",
          "type": "address"
        }
      ],
      "name": "mintPromotional",
      "outputs": [],
      "stateMutability": "nonpayable",
      "type": "function"
    },
    {
      "inputs": [
        {
          "internalType": "uint256",
          "name": "qty",
          "type": "uint256"
        }
      ],
      "name": "mintVintnerWithAVAX",
      "outputs": [],
      "stateMutability": "payable",
      "type": "function"
    },
    {
      "inputs": [
        {
          "internalType": "uint256",
          "name": "qty",
          "type": "uint256"
        }
      ],
      "name": "mintVintnerWithGrape",
      "outputs": [],
      "stateMutability": "nonpayable",
      "type": "function"
    },
    {
      "inputs": [
        {
          "internalType": "uint256",
          "name": "qty",
          "type": "uint256"
        },
        {
          "internalType": "uint256",
          "name": "allotted",
          "type": "uint256"
        },
        {
          "components": [
            {
              "internalType": "bytes32",
              "name": "r",
              "type": "bytes32"
            },
            {
              "internalType": "bytes32",
              "name": "s",
              "type": "bytes32"
            },
            {
              "internalType": "uint8",
              "name": "v",
              "type": "uint8"
            }
          ],
          "internalType": "struct Vintner.Coupon",
          "name": "coupon",
          "type": "tuple"
        }
      ],
      "name": "mintWhitelist",
      "outputs": [],
      "stateMutability": "nonpayable",
      "type": "function"
    },
    {
      "inputs": [],
      "name": "mintingStarted",
      "outputs": [
        {
          "internalType": "bool",
          "name": "",
          "type": "bool"
        }
      ],
      "stateMutability": "view",
      "type": "function"
    },
    {
      "inputs": [],
      "name": "mintingStartedWhitelist",
      "outputs": [
        {
          "internalType": "bool",
          "name": "",
          "type": "bool"
        }
      ],
      "stateMutability": "view",
      "type": "function"
    },
    {
      "inputs": [],
      "name": "name",
      "outputs": [
        {
          "internalType": "string",
          "name": "",
          "type": "string"
        }
      ],
      "stateMutability": "view",
      "type": "function"
    },
    {
      "inputs": [],
      "name": "owner",
      "outputs": [
        {
          "internalType": "address",
          "name": "",
          "type": "address"
        }
      ],
      "stateMutability": "view",
      "type": "function"
    },
    {
      "inputs": [
        {
          "internalType": "uint256",
          "name": "tokenId",
          "type": "uint256"
        }
      ],
      "name": "ownerOf",
      "outputs": [
        {
          "internalType": "address",
          "name": "",
          "type": "address"
        }
      ],
      "stateMutability": "view",
      "type": "function"
    },
    {
      "inputs": [],
      "name": "paused",
      "outputs": [
        {
          "internalType": "bool",
          "name": "",
          "type": "bool"
        }
      ],
      "stateMutability": "view",
      "type": "function"
    },
    {
      "inputs": [],
      "name": "renounceOwnership",
      "outputs": [],
      "stateMutability": "nonpayable",
      "type": "function"
    },
    {
      "inputs": [
        {
          "internalType": "address",
          "name": "from",
          "type": "address"
        },
        {
          "internalType": "address",
          "name": "to",
          "type": "address"
        },
        {
          "internalType": "uint256",
          "name": "tokenId",
          "type": "uint256"
        }
      ],
      "name": "safeTransferFrom",
      "outputs": [],
      "stateMutability": "payable",
      "type": "function"
    },
    {
      "inputs": [
        {
          "internalType": "address",
          "name": "from",
          "type": "address"
        },
        {
          "internalType": "address",
          "name": "to",
          "type": "address"
        },
        {
          "internalType": "uint256",
          "name": "tokenId",
          "type": "uint256"
        },
        {
          "internalType": "bytes",
          "name": "_data",
          "type": "bytes"
        }
      ],
      "name": "safeTransferFrom",
      "outputs": [],
      "stateMutability": "payable",
      "type": "function"
    },
    {
      "inputs": [
        {
          "internalType": "address",
          "name": "operator",
          "type": "address"
        },
        {
          "internalType": "bool",
          "name": "approved",
          "type": "bool"
        }
      ],
      "name": "setApprovalForAll",
      "outputs": [],
      "stateMutability": "nonpayable",
      "type": "function"
    },
    {
      "inputs": [
        {
          "internalType": "string",
          "name": "_BASE_URI",
          "type": "string"
        }
      ],
      "name": "setBaseURI",
      "outputs": [],
      "stateMutability": "nonpayable",
      "type": "function"
    },
    {
      "inputs": [
        {
          "internalType": "address",
          "name": "couponSigner_",
          "type": "address"
        }
      ],
      "name": "setCouponSigner",
      "outputs": [],
      "stateMutability": "nonpayable",
      "type": "function"
    },
    {
      "inputs": [
        {
          "internalType": "address",
          "name": "_grapeAddress",
          "type": "address"
        }
      ],
      "name": "setGrapeAddress",
      "outputs": [],
      "stateMutability": "nonpayable",
      "type": "function"
    },
    {
      "inputs": [
        {
          "internalType": "uint256",
          "name": "_startTime",
          "type": "uint256"
        }
      ],
      "name": "setStartTime",
      "outputs": [],
      "stateMutability": "nonpayable",
      "type": "function"
    },
    {
      "inputs": [
        {
          "internalType": "uint256",
          "name": "_startTime",
          "type": "uint256"
        }
      ],
      "name": "setStartTimeWhitelist",
      "outputs": [],
      "stateMutability": "nonpayable",
      "type": "function"
    },
    {
      "inputs": [
        {
          "internalType": "uint256",
          "name": "tokenId",
          "type": "uint256"
        },
        {
          "internalType": "uint256",
          "name": "vintnerType",
          "type": "uint256"
        }
      ],
      "name": "setVintnerType",
      "outputs": [],
      "stateMutability": "nonpayable",
      "type": "function"
    },
    {
      "inputs": [
        {
          "internalType": "uint256",
          "name": "qty",
          "type": "uint256"
        }
      ],
      "name": "setWhitelistMintCount",
      "outputs": [],
      "stateMutability": "nonpayable",
      "type": "function"
    },
    {
      "inputs": [
        {
          "internalType": "address",
          "name": "_wineryAddress",
          "type": "address"
        }
      ],
      "name": "setWineryAddress",
      "outputs": [],
      "stateMutability": "nonpayable",
      "type": "function"
    },
    {
      "inputs": [
        {
          "internalType": "address",
          "name": "_vintnerTypeOracleAddress",
          "type": "address"
        }
      ],
      "name": "setvintnerTypeOracleAddress",
      "outputs": [],
      "stateMutability": "nonpayable",
      "type": "function"
    },
    {
      "inputs": [],
      "name": "startTime",
      "outputs": [
        {
          "internalType": "uint256",
          "name": "",
          "type": "uint256"
        }
      ],
      "stateMutability": "view",
      "type": "function"
    },
    {
      "inputs": [],
      "name": "startTimeWhitelist",
      "outputs": [
        {
          "internalType": "uint256",
          "name": "",
          "type": "uint256"
        }
      ],
      "stateMutability": "view",
      "type": "function"
    },
    {
      "inputs": [
        {
          "internalType": "bytes4",
          "name": "interfaceId",
          "type": "bytes4"
        }
      ],
      "name": "supportsInterface",
      "outputs": [
        {
          "internalType": "bool",
          "name": "",
          "type": "bool"
        }
      ],
      "stateMutability": "view",
      "type": "function"
    },
    {
      "inputs": [],
      "name": "symbol",
      "outputs": [
        {
          "internalType": "string",
          "name": "",
          "type": "string"
        }
      ],
      "stateMutability": "view",
      "type": "function"
    },
    {
      "inputs": [
        {
          "internalType": "uint256",
          "name": "",
          "type": "uint256"
        }
      ],
      "name": "tokenTypes",
      "outputs": [
        {
          "internalType": "uint256",
          "name": "",
          "type": "uint256"
        }
      ],
      "stateMutability": "view",
      "type": "function"
    },
    {
      "inputs": [
        {
          "internalType": "uint256",
          "name": "tokenId",
          "type": "uint256"
        }
      ],
      "name": "tokenURI",
      "outputs": [
        {
          "internalType": "string",
          "name": "",
          "type": "string"
        }
      ],
      "stateMutability": "view",
      "type": "function"
    },
    {
      "inputs": [
        {
          "internalType": "address",
          "name": "from",
          "type": "address"
        },
        {
          "internalType": "address",
          "name": "to",
          "type": "address"
        },
        {
          "internalType": "uint256",
          "name": "tokenId",
          "type": "uint256"
        }
      ],
      "name": "transferFrom",
      "outputs": [],
      "stateMutability": "payable",
      "type": "function"
    },
    {
      "inputs": [
        {
          "internalType": "address",
          "name": "newOwner",
          "type": "address"
        }
      ],
      "name": "transferOwnership",
      "outputs": [],
      "stateMutability": "nonpayable",
      "type": "function"
    },
    {
      "inputs": [
        {
          "internalType": "uint256",
          "name": "",
          "type": "uint256"
        }
      ],
      "name": "typeYields",
      "outputs": [
        {
          "internalType": "uint256",
          "name": "",
          "type": "uint256"
        }
      ],
      "stateMutability": "view",
      "type": "function"
    },
    {
      "inputs": [],
      "name": "vintnerPublicMinted",
      "outputs": [
        {
          "internalType": "uint256",
          "name": "",
          "type": "uint256"
        }
      ],
      "stateMutability": "view",
      "type": "function"
    },
    {
      "inputs": [],
      "name": "vintnerTypeOracleAddress",
      "outputs": [
        {
          "internalType": "address",
          "name": "",
          "type": "address"
        }
      ],
      "stateMutability": "view",
      "type": "function"
    },
    {
      "inputs": [],
      "name": "vintnersMinted",
      "outputs": [
        {
          "internalType": "uint256",
          "name": "",
          "type": "uint256"
        }
      ],
      "stateMutability": "view",
      "type": "function"
    },
    {
      "inputs": [],
      "name": "vintnersMintedPromotional",
      "outputs": [
        {
          "internalType": "uint256",
          "name": "",
          "type": "uint256"
        }
      ],
      "stateMutability": "view",
      "type": "function"
    },
    {
      "inputs": [],
      "name": "vintnersMintedWhitelist",
      "outputs": [
        {
          "internalType": "uint256",
          "name": "",
          "type": "uint256"
        }
      ],
      "stateMutability": "view",
      "type": "function"
    },
    {
      "inputs": [
        {
          "internalType": "address",
          "name": "",
          "type": "address"
        }
      ],
      "name": "whitelistClaimed",
      "outputs": [
        {
          "internalType": "uint256",
          "name": "",
          "type": "uint256"
        }
      ],
      "stateMutability": "view",
      "type": "function"
    },
    {
      "inputs": [],
      "name": "wineryAddress",
      "outputs": [
        {
          "internalType": "address",
          "name": "",
          "type": "address"
        }
      ],
      "stateMutability": "view",
      "type": "function"
    },
    {
      "inputs": [
        {
          "internalType": "uint256",
          "name": "_amount",
          "type": "uint256"
        }
      ],
      "name": "withdrawAVAX",
      "outputs": [],
      "stateMutability": "payable",
      "type": "function"
    }
  ],
  "transactionHash": "0x570eb269c00c65900861ffed55b0f0d19b926df0f62052da9d28759645b599b5",
  "args": [
    "0xe7f1725E7734CE288F8367e1Bb143E90bb3F0512",
    "0xC8ce9e95470F052C4506B8778FEF2880Bffd427D",
    "0x70997970C51812dc3A010C7d01b50e0d17dc79C8",
    "https://api.pizza.game/chefs"
  ],
  "solcInputHash": "92c732d938aaf9bc2f457296453651fe",
  "bytecode": "0x6080604052610a8c60075560326011553480156200001c57600080fd5b5060405162003664380380620036648339810160408190526200003f91620002f6565b604080518082018252601981527f56696e7461676557696e652047616d652056696e746e6572730000000000000060208083019182528351808501909452601884527f56494e5441474557494e452d47414d452d56494e544e45520000000000000000908401528151919291620000b9916000916200021d565b508051620000cf9060019060208401906200021d565b505050620000ec620000e6620001c760201b60201c565b620001cb565b6006805460ff60a01b19169055601480546001600160a01b0319166001600160a01b038581169190911790915582166200012557600080fd5b600880546001600160a01b038087166001600160a01b031992831617909255600a80549285169290911691909117905580516200016a90600b9060208401906200021d565b5050600d602052505060017ffd54ff1ed53f34a900b24c5ba64f85761163b5d82d98a47b9bd80e45466993c55550600260005260037f10a81eed9d63d16face5e76357905348e6253d3394086026bb2bf2145d7cc2495562000448565b3390565b600680546001600160a01b038381166001600160a01b0319831681179093556040519116919082907f8be0079c531659141344cd1fd0a4f28419497f9722a3daafe3b4186f6b6457e090600090a35050565b8280546200022b906200040b565b90600052602060002090601f0160209004810192826200024f57600085556200029a565b82601f106200026a57805160ff19168380011785556200029a565b828001600101855582156200029a579182015b828111156200029a5782518255916020019190600101906200027d565b50620002a8929150620002ac565b5090565b5b80821115620002a85760008155600101620002ad565b80516001600160a01b0381168114620002db57600080fd5b919050565b634e487b7160e01b600052604160045260246000fd5b600080600080608085870312156200030d57600080fd5b6200031885620002c3565b9350602062000329818701620002c3565b93506200033960408701620002c3565b60608701519093506001600160401b03808211156200035757600080fd5b818801915088601f8301126200036c57600080fd5b815181811115620003815762000381620002e0565b604051601f8201601f19908116603f01168101908382118183101715620003ac57620003ac620002e0565b816040528281528b86848701011115620003c557600080fd5b600093505b82841015620003e95784840186015181850187015292850192620003ca565b82841115620003fb5760008684830101525b989b979a50959850505050505050565b600181811c908216806200042057607f821691505b602082108114156200044257634e487b7160e01b600052602260045260246000fd5b50919050565b61320c80620004586000396000f3fe60806040526004361061030c5760003560e01c80636352211e1161019c5780639c508cc0116100e2578063da98026711610090578063da980267146108d9578063db4bec44146108ef578063dbddb26a1461091c578063e985e9c514610931578063eb41903a14610951578063efe0d7ce14610971578063f2fde38b14610986578063fc7f3d571461034657600080fd5b80639c508cc01461081d578063a22cb4651461083d578063aeb5cd5e1461085d578063b88d4fde14610870578063b99630d514610883578063c87b56dd146108a3578063cda17416146108c357600080fd5b80638287ef2c1161014a5780638287ef2c1461075157806385ed3a5a146107645780638670f79d146107815780638942a6a31461079d5780638da5cb5b146107b357806395d89b41146107c85780639a91952f146107dd5780639b1a5173146107fd57600080fd5b80636352211e146106845780636de1a6d9146106a45780636f8608e4146106d157806370a08231146106e6578063715018a614610706578063735d09a61461071b57806378e979251461073b57600080fd5b80632891b6a81161026157806342842e0e1161020f57806342842e0e146105b257806343f37b98146105c557806348c4c37f146105e55780634984a719146105fa57806355f804b31461060f578063599dd9741461062f5780635c975abb1461064f5780635fe95a301461066457600080fd5b80632891b6a8146104da57806332d90812146104ef57806333f6832a1461050f5780633676edff1461053c5780633ca1a3a1146105525780633e0a322d146105725780634036ab781461059257600080fd5b8063097f1f2f116102be578063097f1f2f1461042557806314a91014146104455780631ea111791461045b578063238aa9cd1461047b57806323b872dd1461049b5780632476703e146104ae57806327b28a0b146104c457600080fd5b806301ffc9a71461031157806305c87a021461034657806306fdde03146103695780630805d8841461038b578063081812fc146103ab578063082ee8b2146103e3578063095ea7b314610403575b600080fd5b34801561031d57600080fd5b5061033161032c366004612894565b6109a6565b60405190151581526020015b60405180910390f35b34801561035257600080fd5b5061035b600181565b60405190815260200161033d565b34801561037557600080fd5b5061037e6109f8565b60405161033d9190612909565b34801561039757600080fd5b5061035b6103a636600461291c565b610a8a565b3480156103b757600080fd5b506103cb6103c636600461291c565b610ada565b6040516001600160a01b03909116815260200161033d565b3480156103ef57600080fd5b50600a546103cb906001600160a01b031681565b34801561040f57600080fd5b5061042361041e36600461294a565b610b62565b005b34801561043157600080fd5b50610423610440366004612976565b610c73565b34801561045157600080fd5b5061035b61271081565b34801561046757600080fd5b506014546103cb906001600160a01b031681565b34801561048757600080fd5b50610423610496366004612993565b610cc4565b6104236104a93660046129cc565b610e32565b3480156104ba57600080fd5b5061035b60125481565b3480156104d057600080fd5b5061035b60115481565b3480156104e657600080fd5b5061035b600381565b3480156104fb57600080fd5b5061042361050a36600461291c565b610e63565b34801561051b57600080fd5b5061035b61052a36600461291c565b600c6020526000908152604090205481565b34801561054857600080fd5b5061035b60105481565b34801561055e57600080fd5b506008546103cb906001600160a01b031681565b34801561057e57600080fd5b5061042361058d36600461291c565b611097565b34801561059e57600080fd5b5061035b6105ad36600461291c565b6110eb565b6104236105c03660046129cc565b611125565b3480156105d157600080fd5b506104236105e0366004612a0d565b611140565b3480156105f157600080fd5b5061035b603281565b34801561060657600080fd5b5061035b600281565b34801561061b57600080fd5b5061042361062a366004612a44565b611183565b34801561063b57600080fd5b5061042361064a366004612ab6565b6111be565b34801561065b57600080fd5b506103316112d3565b34801561067057600080fd5b5061042361067f366004612b1f565b6112e3565b34801561069057600080fd5b506103cb61069f36600461291c565b611449565b3480156106b057600080fd5b5061035b6106bf36600461291c565b600d6020526000908152604090205481565b3480156106dd57600080fd5b506103316114c0565b3480156106f257600080fd5b5061035b610701366004612976565b6114dc565b34801561071257600080fd5b50610423611563565b34801561072757600080fd5b506009546103cb906001600160a01b031681565b34801561074757600080fd5b5061035b60135481565b61042361075f36600461291c565b61159e565b34801561077057600080fd5b5061035b68056bc75e2d6310000081565b34801561078d57600080fd5b5061035b6729a2241af62c000081565b3480156107a957600080fd5b5061035b600e5481565b3480156107bf57600080fd5b506103cb6116a4565b3480156107d457600080fd5b5061037e6116b3565b3480156107e957600080fd5b506104236107f8366004612976565b6116c2565b34801561080957600080fd5b50610423610818366004612976565b611713565b34801561082957600080fd5b5061042361083836600461291c565b611764565b34801561084957600080fd5b50610423610858366004612bbd565b6117b8565b61042361086b36600461291c565b6117c3565b61042361087e366004612bf6565b6118a2565b34801561088f57600080fd5b5061042361089e366004612976565b6118d4565b3480156108af57600080fd5b5061037e6108be36600461291c565b611925565b3480156108cf57600080fd5b5061035b60075481565b3480156108e557600080fd5b5061035b600f5481565b3480156108fb57600080fd5b5061035b61090a366004612976565b60156020526000908152604090205481565b34801561092857600080fd5b5061037e6119cc565b34801561093d57600080fd5b5061033161094c366004612cba565b611a5a565b34801561095d57600080fd5b5061042361096c36600461291c565b611ac2565b34801561097d57600080fd5b50610331611b16565b34801561099257600080fd5b506104236109a1366004612976565b611b30565b60006001600160e01b031982166380ac58cd60e01b14806109d757506001600160e01b03198216635b5e139f60e01b145b806109f257506301ffc9a760e01b6001600160e01b03198316145b92915050565b606060008054610a0790612ce8565b80601f0160208091040260200160405190810160405280929190818152602001828054610a3390612ce8565b8015610a805780601f10610a5557610100808354040283529160200191610a80565b820191906000526020600020905b815481529060010190602001808311610a6357829003601f168201915b5050505050905090565b6000610a9582611bd0565b610aba5760405162461bcd60e51b8152600401610ab190612d23565b60405180910390fd5b506000908152600c60209081526040808320548352600d90915290205490565b6000610ae582611bd0565b610b465760405162461bcd60e51b815260206004820152602c60248201527f4552433732313a20617070726f76656420717565727920666f72206e6f6e657860448201526b34b9ba32b73a103a37b5b2b760a11b6064820152608401610ab1565b506000908152600460205260409020546001600160a01b031690565b6000610b6d82611449565b9050806001600160a01b0316836001600160a01b03161415610bdb5760405162461bcd60e51b815260206004820152602160248201527f4552433732313a20617070726f76616c20746f2063757272656e74206f776e656044820152603960f91b6064820152608401610ab1565b336001600160a01b0382161480610bf75750610bf78133611a5a565b610c645760405162461bcd60e51b815260206004820152603860248201527f4552433732313a20617070726f76652063616c6c6572206973206e6f74206f776044820152771b995c881b9bdc88185c1c1c9bdd995908199bdc88185b1b60421b6064820152608401610ab1565b610c6e8383611bed565b505050565b33610c7c6116a4565b6001600160a01b031614610ca25760405162461bcd60e51b8152600401610ab190612d51565b600980546001600160a01b0319166001600160a01b0392909216919091179055565b33610ccd6116a4565b6001600160a01b031614610cf35760405162461bcd60e51b8152600401610ab190612d51565b60008311610d135760405162461bcd60e51b8152600401610ab190612d86565b603283601054610d239190612dd3565b1115610d7c5760405162461bcd60e51b815260206004820152602260248201527f796f752063616e2774206d696e742074686174206d616e79207269676874206e6044820152616f7760f01b6064820152608401610ab1565b6001821480610d8b5750600282145b610da75760405162461bcd60e51b8152600401610ab190612deb565b60005b83811015610e2c57600160106000828254610dc59190612dd3565b90915550506010546000908152600c602052604090205415610df95760405162461bcd60e51b8152600401610ab190612e19565b601080546000908152600c6020526040902084905554610e1a908390611c5b565b80610e2481612e5f565b915050610daa565b50505050565b610e3c3382611ce9565b610e585760405162461bcd60e51b8152600401610ab190612e7a565b610c6e838383611db3565b610e6b6112d3565b15610e885760405162461bcd60e51b8152600401610ab190612ecb565b610e906114c0565b610eac5760405162461bcd60e51b8152600401610ab190612ef5565b600081118015610ebd575060148111155b610ed95760405162461bcd60e51b8152600401610ab190612f24565b6032600f54612710610eeb9190612f5b565b610ef59190612f5b565b81600e54610f039190612dd3565b1115610f215760405162461bcd60e51b8152600401610ab190612f72565b6000610f35826729a2241af62c0000612fb7565b6008546040516370a0823160e01b815233600482015291925082916001600160a01b03909116906370a0823190602401602060405180830381865afa158015610f82573d6000803e3d6000fd5b505050506040513d601f19601f82011682018060405250810190610fa69190612fd6565b1015610fe75760405162461bcd60e51b815260206004820152601060248201526f6e6f7420656e6f75676820477261706560801b6044820152606401610ab1565b6008546001600160a01b03166323b872dd336040516001600160e01b031960e084901b1681526001600160a01b039091166004820152306024820152604481018490526064016020604051808303816000875af115801561104c573d6000803e3d6000fd5b505050506040513d601f19601f820116820180604052508101906110709190612fef565b5081600e60008282546110839190612dd3565b9091555061109390508233611f53565b5050565b336110a06116a4565b6001600160a01b0316146110c65760405162461bcd60e51b8152600401610ab190612d51565b428110156110e65760405162461bcd60e51b8152600401610ab19061300c565b601355565b60006110f682611bd0565b6111125760405162461bcd60e51b8152600401610ab190612d23565b506000908152600c602052604090205490565b610c6e838383604051806020016040528060008152506118a2565b336111496116a4565b6001600160a01b03161461116f5760405162461bcd60e51b8152600401610ab190612d51565b610c6e6001600160a01b0384168284611f96565b3361118c6116a4565b6001600160a01b0316146111b25760405162461bcd60e51b8152600401610ab190612d51565b610c6e600b83836127e5565b600a546001600160a01b0316336001600160a01b03161461122c5760405162461bcd60e51b815260206004820152602260248201527f6d736773656e64657220646f6573206e6f742068617665207065726d6973736960448201526137b760f11b6064820152608401610ab1565b6000828152600c6020526040902054156112585760405162461bcd60e51b8152600401610ab190612e19565b60018114806112675750600281145b6112835760405162461bcd60e51b8152600401610ab190612deb565b6000828152600c602090815260409182902083905581518481529081018390527f99bfcaa3dc7409b462b5c2023b3fd711f104e8fc2f126ed387e6af9abbd9c94591015b60405180910390a15050565b600654600160a01b900460ff1690565b6112eb6112d3565b156113085760405162461bcd60e51b8152600401610ab190612ecb565b611310611b16565b61132c5760405162461bcd60e51b8152600401610ab190612ef5565b611337826001612dd3565b336000908152601560205260409020546113519085612dd3565b106113955760405162461bcd60e51b8152602060048201526014602482015273115e18d959591cc813585e08105b1b1bdd1d195960621b6044820152606401610ab1565b6040805160208082018590523382840152825180830384018152606090920190925280519101206113c68183611fe8565b6114035760405162461bcd60e51b815260206004820152600e60248201526d24b73b30b634b21021b7bab837b760911b6044820152606401610ab1565b83600f60008282546114159190612dd3565b90915550503360009081526015602052604081208054869290611439908490612dd3565b90915550610e2c90508433611f53565b6000818152600260205260408120546001600160a01b0316806109f25760405162461bcd60e51b815260206004820152602960248201527f4552433732313a206f776e657220717565727920666f72206e6f6e657869737460448201526832b73a103a37b5b2b760b91b6064820152608401610ab1565b60006013546000141580156114d757506013544210155b905090565b60006001600160a01b0382166115475760405162461bcd60e51b815260206004820152602a60248201527f4552433732313a2062616c616e636520717565727920666f7220746865207a65604482015269726f206164647265737360b01b6064820152608401610ab1565b506001600160a01b031660009081526003602052604090205490565b3361156c6116a4565b6001600160a01b0316146115925760405162461bcd60e51b8152600401610ab190612d51565b61159c60006120bf565b565b6115a66112d3565b156115c35760405162461bcd60e51b8152600401610ab190612ecb565b6115cb6114c0565b6115e75760405162461bcd60e51b8152600401610ab190612ef5565b6000811180156115f8575060148111155b6116145760405162461bcd60e51b8152600401610ab190612f24565b6032600f546127106116269190612f5b565b6116309190612f5b565b81600e5461163e9190612dd3565b111561165c5760405162461bcd60e51b8152600401610ab190612f72565b6000611670826729a2241af62c0000612fb7565b9050803410156116925760405162461bcd60e51b8152600401610ab190613043565b81600e60008282546110839190612dd3565b6006546001600160a01b031690565b606060018054610a0790612ce8565b336116cb6116a4565b6001600160a01b0316146116f15760405162461bcd60e51b8152600401610ab190612d51565b600880546001600160a01b0319166001600160a01b0392909216919091179055565b3361171c6116a4565b6001600160a01b0316146117425760405162461bcd60e51b8152600401610ab190612d51565b601480546001600160a01b0319166001600160a01b0392909216919091179055565b3361176d6116a4565b6001600160a01b0316146117935760405162461bcd60e51b8152600401610ab190612d51565b600081116117b35760405162461bcd60e51b8152600401610ab190612d86565b600755565b611093338383612111565b336117cc6116a4565b6001600160a01b0316146117f25760405162461bcd60e51b8152600401610ab190612d51565b804710156118125760405162461bcd60e51b8152600401610ab190613043565b6040513390600090829084908381818185875af1925050503d8060008114611856576040519150601f19603f3d011682016040523d82523d6000602084013e61185b565b606091505b5050905080610c6e5760405162461bcd60e51b815260206004820152601360248201527208cc2d2d8cac840e8de40e6cadcc84082ac82b606b1b6044820152606401610ab1565b6118ac3383611ce9565b6118c85760405162461bcd60e51b8152600401610ab190612e7a565b610e2c848484846121dc565b336118dd6116a4565b6001600160a01b0316146119035760405162461bcd60e51b8152600401610ab190612d51565b600a80546001600160a01b0319166001600160a01b0392909216919091179055565b606061193082611bd0565b6119945760405162461bcd60e51b815260206004820152602f60248201527f4552433732314d657461646174613a2055524920717565727920666f72206e6f60448201526e3732bc34b9ba32b73a103a37b5b2b760891b6064820152608401610ab1565b61199c61220f565b6119a58361221e565b6040516020016119b692919061306c565b6040516020818303038152906040529050919050565b600b80546119d990612ce8565b80601f0160208091040260200160405190810160405280929190818152602001828054611a0590612ce8565b8015611a525780601f10611a2757610100808354040283529160200191611a52565b820191906000526020600020905b815481529060010190602001808311611a3557829003601f168201915b505050505081565b6009546000906001600160a01b031615801590611a8457506009546001600160a01b038381169116145b15611a91575060016109f2565b6001600160a01b0380841660009081526005602090815260408083209386168352929052205460ff165b9392505050565b33611acb6116a4565b6001600160a01b031614611af15760405162461bcd60e51b8152600401610ab190612d51565b42811015611b115760405162461bcd60e51b8152600401610ab19061300c565b601255565b60006012546000141580156114d757505060125442101590565b33611b396116a4565b6001600160a01b031614611b5f5760405162461bcd60e51b8152600401610ab190612d51565b6001600160a01b038116611bc45760405162461bcd60e51b815260206004820152602660248201527f4f776e61626c653a206e6577206f776e657220697320746865207a65726f206160448201526564647265737360d01b6064820152608401610ab1565b611bcd816120bf565b50565b6000908152600260205260409020546001600160a01b0316151590565b600081815260046020526040902080546001600160a01b0319166001600160a01b0384169081179091558190611c2282611449565b6001600160a01b03167f8c5be1e5ebec7d5bd14f71427d1e84f3dd0314c0f7b2291e5b200ac8c7c3b92560405160405180910390a45050565b6127106011541115611caf5760405162461bcd60e51b815260206004820152601c60248201527f63616e6e6f74206d696e7420616e796d6f72652076696e746e657273000000006044820152606401610ab1565b611cb9828261231c565b6040518181527f3926193096e67dd1d3b1874999e37846ff022578abd9b20fe806f5dcb52d788d906020016112c7565b6000611cf482611bd0565b611d555760405162461bcd60e51b815260206004820152602c60248201527f4552433732313a206f70657261746f7220717565727920666f72206e6f6e657860448201526b34b9ba32b73a103a37b5b2b760a11b6064820152608401610ab1565b6000611d6083611449565b9050806001600160a01b0316846001600160a01b03161480611d9b5750836001600160a01b0316611d9084610ada565b6001600160a01b0316145b80611dab5750611dab8185611a5a565b949350505050565b826001600160a01b0316611dc682611449565b6001600160a01b031614611e2e5760405162461bcd60e51b815260206004820152602960248201527f4552433732313a207472616e73666572206f6620746f6b656e2074686174206960448201526839903737ba1037bbb760b91b6064820152608401610ab1565b6001600160a01b038216611e905760405162461bcd60e51b8152602060048201526024808201527f4552433732313a207472616e7366657220746f20746865207a65726f206164646044820152637265737360e01b6064820152608401610ab1565b611e9b600082611bed565b6001600160a01b0383166000908152600360205260408120805460019290611ec4908490612f5b565b90915550506001600160a01b0382166000908152600360205260408120805460019290611ef2908490612dd3565b909155505060008181526002602052604080822080546001600160a01b0319166001600160a01b0386811691821790925591518493918716917fddf252ad1be2c89b69c2b068fc378daa952ba7f163c4a11628f55a4df523b3ef91a4505050565b60005b82811015610c6e57600160116000828254611f719190612dd3565b92505081905550611f8482601154611c5b565b80611f8e81612e5f565b915050611f56565b604080516001600160a01b038416602482015260448082018490528251808303909101815260649091019091526020810180516001600160e01b031663a9059cbb60e01b179052610c6e908490612336565b60008060018484604001518560000151866020015160405160008152602001604052604051612033949392919093845260ff9290921660208401526040830152606082015260800190565b6020604051602081039080840390855afa158015612055573d6000803e3d6000fd5b5050604051601f1901519150506001600160a01b0381166120a75760405162461bcd60e51b815260206004820152600c60248201526b5a65726f204164647265737360a01b6044820152606401610ab1565b6014546001600160a01b039081169116149392505050565b600680546001600160a01b038381166001600160a01b0319831681179093556040519116919082907f8be0079c531659141344cd1fd0a4f28419497f9722a3daafe3b4186f6b6457e090600090a35050565b816001600160a01b0316836001600160a01b0316141561216f5760405162461bcd60e51b815260206004820152601960248201527822a9219b99189d1030b8383937bb32903a379031b0b63632b960391b6044820152606401610ab1565b6001600160a01b03838116600081815260056020908152604080832094871680845294825291829020805460ff191686151590811790915591519182527f17307eab39ab6107e8899845ad3d59bd9653f200f220920489ca2b5937696c31910160405180910390a3505050565b6121e7848484611db3565b6121f384848484612408565b610e2c5760405162461bcd60e51b8152600401610ab1906130ba565b6060600b8054610a0790612ce8565b6060816122425750506040805180820190915260018152600360fc1b602082015290565b8160005b811561226c578061225681612e5f565b91506122659050600a83613122565b9150612246565b60008167ffffffffffffffff81111561228757612287612ad8565b6040519080825280601f01601f1916602001820160405280156122b1576020820181803683370190505b5090505b8415611dab576122c6600183612f5b565b91506122d3600a86613136565b6122de906030612dd3565b60f81b8183815181106122f3576122f361314a565b60200101906001600160f81b031916908160001a905350612315600a86613122565b94506122b5565b611093828260405180602001604052806000815250612506565b600061238b826040518060400160405280602081526020017f5361666545524332303a206c6f772d6c6576656c2063616c6c206661696c6564815250856001600160a01b03166125399092919063ffffffff16565b805190915015610c6e57808060200190518101906123a99190612fef565b610c6e5760405162461bcd60e51b815260206004820152602a60248201527f5361666545524332303a204552433230206f7065726174696f6e20646964206e6044820152691bdd081cdd58d8d9595960b21b6064820152608401610ab1565b60006001600160a01b0384163b156124fb57604051630a85bd0160e11b81526001600160a01b0385169063150b7a029061244c903390899088908890600401613160565b6020604051808303816000875af1925050508015612487575060408051601f3d908101601f191682019092526124849181019061319d565b60015b6124e1573d8080156124b5576040519150601f19603f3d011682016040523d82523d6000602084013e6124ba565b606091505b5080516124d95760405162461bcd60e51b8152600401610ab1906130ba565b805181602001fd5b6001600160e01b031916630a85bd0160e11b149050611dab565b506001949350505050565b6125108383612548565b61251d6000848484612408565b610c6e5760405162461bcd60e51b8152600401610ab1906130ba565b6060611dab848460008561267b565b6001600160a01b03821661259e5760405162461bcd60e51b815260206004820181905260248201527f4552433732313a206d696e7420746f20746865207a65726f20616464726573736044820152606401610ab1565b6125a781611bd0565b156125f45760405162461bcd60e51b815260206004820152601c60248201527f4552433732313a20746f6b656e20616c7265616479206d696e746564000000006044820152606401610ab1565b6001600160a01b038216600090815260036020526040812080546001929061261d908490612dd3565b909155505060008181526002602052604080822080546001600160a01b0319166001600160a01b03861690811790915590518392907fddf252ad1be2c89b69c2b068fc378daa952ba7f163c4a11628f55a4df523b3ef908290a45050565b6060824710156126dc5760405162461bcd60e51b815260206004820152602660248201527f416464726573733a20696e73756666696369656e742062616c616e636520666f6044820152651c8818d85b1b60d21b6064820152608401610ab1565b6001600160a01b0385163b6127335760405162461bcd60e51b815260206004820152601d60248201527f416464726573733a2063616c6c20746f206e6f6e2d636f6e74726163740000006044820152606401610ab1565b600080866001600160a01b0316858760405161274f91906131ba565b60006040518083038185875af1925050503d806000811461278c576040519150601f19603f3d011682016040523d82523d6000602084013e612791565b606091505b50915091506127a18282866127ac565b979650505050505050565b606083156127bb575081611abb565b8251156127cb5782518084602001fd5b8160405162461bcd60e51b8152600401610ab19190612909565b8280546127f190612ce8565b90600052602060002090601f0160209004810192826128135760008555612859565b82601f1061282c5782800160ff19823516178555612859565b82800160010185558215612859579182015b8281111561285957823582559160200191906001019061283e565b50612865929150612869565b5090565b5b80821115612865576000815560010161286a565b6001600160e01b031981168114611bcd57600080fd5b6000602082840312156128a657600080fd5b8135611abb8161287e565b60005b838110156128cc5781810151838201526020016128b4565b83811115610e2c5750506000910152565b600081518084526128f58160208601602086016128b1565b601f01601f19169290920160200192915050565b602081526000611abb60208301846128dd565b60006020828403121561292e57600080fd5b5035919050565b6001600160a01b0381168114611bcd57600080fd5b6000806040838503121561295d57600080fd5b823561296881612935565b946020939093013593505050565b60006020828403121561298857600080fd5b8135611abb81612935565b6000806000606084860312156129a857600080fd5b833592506020840135915060408401356129c181612935565b809150509250925092565b6000806000606084860312156129e157600080fd5b83356129ec81612935565b925060208401356129fc81612935565b929592945050506040919091013590565b600080600060608486031215612a2257600080fd5b8335612a2d81612935565b92506020840135915060408401356129c181612935565b60008060208385031215612a5757600080fd5b823567ffffffffffffffff80821115612a6f57600080fd5b818501915085601f830112612a8357600080fd5b813581811115612a9257600080fd5b866020828501011115612aa457600080fd5b60209290920196919550909350505050565b60008060408385031215612ac957600080fd5b50508035926020909101359150565b634e487b7160e01b600052604160045260246000fd5b604051601f8201601f1916810167ffffffffffffffff81118282101715612b1757612b17612ad8565b604052919050565b600080600083850360a0811215612b3557600080fd5b84359350602085013592506060603f1982011215612b5257600080fd5b506040516060810181811067ffffffffffffffff82111715612b7657612b76612ad8565b6040908152850135815260608501356020820152608085013560ff81168114612b9e57600080fd5b604082015292959194509192509050565b8015158114611bcd57600080fd5b60008060408385031215612bd057600080fd5b8235612bdb81612935565b91506020830135612beb81612baf565b809150509250929050565b60008060008060808587031215612c0c57600080fd5b8435612c1781612935565b9350602085810135612c2881612935565b935060408601359250606086013567ffffffffffffffff80821115612c4c57600080fd5b818801915088601f830112612c6057600080fd5b813581811115612c7257612c72612ad8565b612c84601f8201601f19168501612aee565b91508082528984828501011115612c9a57600080fd5b808484018584013760008482840101525080935050505092959194509250565b60008060408385031215612ccd57600080fd5b8235612cd881612935565b91506020830135612beb81612935565b600181811c90821680612cfc57607f821691505b60208210811415612d1d57634e487b7160e01b600052602260045260246000fd5b50919050565b6020808252601490820152731d1bdad95b88191bd95cc81b9bdd08195e1a5cdd60621b604082015260600190565b6020808252818101527f4f776e61626c653a2063616c6c6572206973206e6f7420746865206f776e6572604082015260600190565b6020808252601f908201527f7175616e74697479206d7573742062652067726561746572207468616e203000604082015260600190565b634e487b7160e01b600052601160045260246000fd5b60008219821115612de657612de6612dbd565b500190565b602080825260149082015273696e76616c69642076696e746e6572207479706560601b604082015260600190565b60208082526026908201527f7468617420746f6b656e277320747970652068617320616c7265616479206265604082015265195b881cd95d60d21b606082015260800190565b6000600019821415612e7357612e73612dbd565b5060010190565b60208082526031908201527f4552433732313a207472616e736665722063616c6c6572206973206e6f74206f6040820152701ddb995c881b9bdc88185c1c1c9bdd9959607a1b606082015260800190565b60208082526010908201526f14185d5cd8589b194e881c185d5cd95960821b604082015260600190565b60208082526015908201527463616e6e6f74206d696e74207269676874206e6f7760581b604082015260600190565b6020808252601f908201527f45786365656473206e756d626572206f66206d696e747320616c6c6f77656400604082015260600190565b600082821015612f6d57612f6d612dbd565b500390565b60208082526025908201527f45786365656473206e756d626572206f6620746f74616c206d696e747320616c6040820152641b1bddd95960da1b606082015260800190565b6000816000190483118215151615612fd157612fd1612dbd565b500290565b600060208284031215612fe857600080fd5b5051919050565b60006020828403121561300157600080fd5b8151611abb81612baf565b6020808252601f908201527f737461727454696d652063616e6e6f7420626520696e20746865207061737400604082015260600190565b6020808252600f908201526e0dcdee840cadcdeeaced04082ac82b608b1b604082015260600190565b6000835161307e8184602088016128b1565b602f60f81b908301908152835161309c8160018401602088016128b1565b64173539b7b760d91b60019290910191820152600601949350505050565b60208082526032908201527f4552433732313a207472616e7366657220746f206e6f6e20455243373231526560408201527131b2b4bb32b91034b6b83632b6b2b73a32b960711b606082015260800190565b634e487b7160e01b600052601260045260246000fd5b6000826131315761313161310c565b500490565b6000826131455761314561310c565b500690565b634e487b7160e01b600052603260045260246000fd5b6001600160a01b0385811682528416602082015260408101839052608060608201819052600090613193908301846128dd565b9695505050505050565b6000602082840312156131af57600080fd5b8151611abb8161287e565b600082516131cc8184602087016128b1565b919091019291505056fea26469706673582212208fa8c7ad40d9fe96c4fd0e5dd6ec2376457d365550840b90a980c1a277c63ed964736f6c634300080b0033"
}